:020000040000FA
:1000000038052020690200006D0200006F02000028
:1000100000000000000000000000000000000000E0
:10002000000000000000000000000000710200005D
:10003000000000000000000073020000D132000048
:1000400077020000770200007702000077020000CC
:1000500077020000770200007702000077020000BC
:10006000000000007702000077020000000000009E
:10007000000000007702000059330000393300000F
:10008000770200007702000077020000DD320000F6
:10009000770200007702000000000000000000006E
:1000A000770200007702000000000000000000005E
:1000B00077020000000000007702000077020000D5
:1000C00000F002F800F0C1F812A030C80838241877
:1000D0002D18AC4201D100F0B8F80FCCA246AB46C7
:1000E0000CA730CF2D1B083F3F197C427F1E544484
:1000F0002D090426F441641EAC4201D300F0A5F89A
:100100000126334200D0FB1A3343984754465D46DC
:10011000DFE70000E4560000F45600000000000095
:100120007047000000000000002300240025002686
:10013000103A01D378C1FBD8520700D330C100D5A3
:100140000B60704710B56E2902D100F061FE10BD42
:10015000702902D101F0C3F910BD662902D104F063
:100160005BFE10BD652902D104F056FE10BD672963
:1001700002D104F051FE10BD612902D104F054FEF9
:1001800010BD03681B0A01D380231943692902D1DA
:1001900000F0E0F810BD642902D100F0DBF810BDDA
:1001A000752902D100F0D6F810BD6F2902D101F0F7
:1001B00041F910BD782902D101F07EF910BDE9297D
:1001C00002D101F0DDF810BDE42902D101F0D8F828
:1001D00010BDF52902D101F0D3F810BDEF2902D1ED
:1001E00001F034F910BDF82902D101F073F910BD06
:1001F0000368DB0901D380231943632902D101F08D
:1002000055F810BD732902D101F058F810BDE3294B
:1002100002D101F082FB10BDF32902D101F085FB70
:1002200010BD002010BD1FB501F07AF904000020B8
:10023000002104F081FC401C60600020002104F0DB
:1002400065FCE0601FBD10B510BD01F0F7FE114662
:10025000FFF7E9FF03F008FF01F018FF03B4FFF711
:10026000F2FF03BC03F0D4F806480047FEE7FEE7C0
:10027000FEE7FEE7FEE7FEE703480449044A054BB4
:1002800070470000C10000003803202038052020FE
:1002900038042020380420207CB51D4616460C006A
:1002A000009007D04142A14202D30019401E01E054
:1002B0000020C043064B7B442A46694601903046E5
:1002C00000F0C9FF002C02D0009A002111707CBD03
:1002D000CD0F00000FB41CB5084B06AA7B4469463D
:1002E0000090059800F0B7FF04460020694600F032
:1002F000C5FF20461CBC08BC04B018479D0F000079
:1003000070B50C460546012A05D02878800600D530
:10031000EA69002302E0012305E05B1C934202D25C
:10032000E05C0028F9D1A869E618C01AA861286A1B
:10033000C0182862284600F0DAFC04E06A682078D9
:10034000A968641C9047B442F8D3284600F0E5FC45
:1003500070BD0000F7B5002575291068009914A636
:1003600011D000F0EBFC002802DA404211A608E0B0
:10037000009909688A0701D50FA602E0490704D54C
:100380000EA6012501E000F0E2FC009F00242437C6
:1003900004E001F0B1F830313955641C0028F8D17F
:1003A0002B4632462146009800F0DAFCFEBD0000E4
:1003B000000000002D0000002B00000020000000C5
:1003C000F3B50446002081B020622046E1688847EA
:1003D000002872D0252802D06268A168ABE0594F8E
:1003E00000267F442046E16888472028054608DB30
:1003F000312D06D2781920380078002801D0064324
:10040000F0E7B00701D5042086430020E0610746ED
:10041000A0612A2D0AD0284604F070FB002827D0BE
:10042000B8000019303D0090856119E00298BA00CB
:10043000121902C8916102902046E1688847012F95
:10044000054617D1E06900281FDA202086431CE00A
:1004500000980A2180694843009940193038886122
:100460002046E1688847054604F048FB0028EFD1A4
:10047000012F0AD02E2D08D12046E1688847054675
:10048000202006437F1C022FC3DBA069002803DA6B
:100490004042A06101200643F00701D010208643AE
:1004A0006C2D0BD0682D09D04C2D3CD06A2D38D046
:1004B000742D38D07A2D36D016E040E0E1682F4612
:1004C00020468847B842054609D16C2F29D0012023
:1004D0008002E168064320468847054604E06C2F09
:1004E0001DD0FF2001300643002D28D0284641387A
:1004F000192803D80120C002064320352046266073
:100500002946029A1646FFF71DFE002810D0012842
:100510000BD0F61DF008C0000830029055E74020CF
:10052000E1E78020D5E70020D3E7361D02964CE7AF
:1005300062682846A1689047206A401C44E7206A08
:10054000FEBD0000524A000010B5044603E003F06F
:100550001BFB401C08D020780549641C0028F6D1FC
:100560000A2003F011FB10BD0020C04310BD0000A5
:1005700084002020002203098B4273D3030A8B429C
:1005800058D3030B8B423CD3030C8B4221D312E094
:1005900003460B437FD4002243088B4274D30309E4
:1005A0008B425FD3030A8B4244D3030B8B4228D385
:1005B000030C8B420DD30902FF2212BA030C8B42AB
:1005C00002D31212090265D0030B8B4219D300E04B
:1005D000090AC30B8B4201D3CB03C01A5241830BD0
:1005E0008B4201D38B03C01A5241430B8B4201D380
:1005F0004B03C01A5241030B8B4201D30B03C01AA9
:100600005241C30A8B4201D3CB02C01A5241830A22
:100610008B4201D38B02C01A5241430A8B4201D351
:100620004B02C01A5241030A8B4201D30B02C01A7B
:100630005241CDD2C3098B4201D3CB01C01A5241E2
:1006400083098B4201D38B01C01A524143098B426B
:1006500001D34B01C01A524103098B4201D30B0154
:10066000C01A5241C3088B4201D3CB00C01A524179
:1006700083088B4201D38B00C01A524143088B423E
:1006800001D34B00C01A5241411A00D201465241D7
:10069000104670475DE0CA0F00D04942031000D3F6
:1006A000404253409C46002203098B422DD3030A4B
:1006B0008B4212D38901FC2212BA030A8B420CD35B
:1006C000890192118B4208D3890192118B4204D384
:1006D00089013AD0921100E08909C3098B4201D304
:1006E000CB01C01A524183098B4201D38B01C01A3E
:1006F000524143098B4201D34B01C01A52410309B5
:100700008B4201D30B01C01A5241C3088B4201D363
:10071000CB00C01A524183088B4201D38B00C01A10
:100720005241D9D243088B4201D34B00C01A5241E7
:10073000411A00D201465241104663465B1001D374
:100740004042002B00D54942704763465B1000D3FE
:10075000404201B50449002802DC491C084000E081
:100760000846C046C04602BDFFFFFF7F7047704786
:10077000704700000246C80FC00781434B0030B5E8
:100780004B405B009B0D20D01923DB06C9180123C9
:100790001B05994220DB0324A40704251346AB4024
:1007A0000BD3002B04D1EB0613409B00E34204D48F
:1007B00001246407002312195941FF231B059942A4
:1007C0000BD2C9000143500F09E0CB0204D501430D
:1007D0000803024305D0054830BDFF21C905084381
:1007E00030BD084607210905884330BD0000C07FA1
:1007F0001F22030C02D10F22000402D0030E03D0EB
:1008000004E00020014670470002083A030F01D1BE
:100810000001121F830F01D18000921E002801DB0E
:100820004000521E120551184205C01241181046D0
:100830007047C10FC90700D04042012292071143FF
:10084000D6E701218907D3E7F0B58B4C0F09254680
:1008500089B0BD437BD01D092646AE43FAD00E4673
:100860005E402740F60F3E43254071D024012142CF
:10087000FBD0FF24AD19A4042D1B039501252D05E4
:10088000DB02DB0AC9022B43C90A29431E01090105
:10089000040F130F050121431701880B82039143B5
:1008A0002D098C46A90B1E438A039543B30B9A036B
:1008B00096433F09BA0B9403A74302962E467E4304
:1008C0000497B6464E19D7190C460196544305971E
:1008D0007E43371B7646BF1B3601B646BE0B361924
:1008E00000967646BC043719009C01D3641C009422
:1008F0006400002F01D001263443029E049F7543FB
:1009000066467E430496760034196E0034190094CE
:10091000029C019E1C196643751BAE4606946546F3
:100920004519059C05956C43594375460891691A0C
:100930000191049E01465143A41B0491611A009C3D
:100940000791E10605D061090122114302E072E03E
:100950006EE06109089D00272C0A2D066918049D88
:100960007C412A0A2D066918019D6241AC0DAD0239
:100970006D185441079A910D920255196141029ADE
:10098000644658435443069B059A5A43121A131B54
:100990009A0E9B015B187A41010B0005C318514167
:1009A000220A200644195A419A4200D2491C0120C9
:1009B0004002814203D315230226F64302E01423AA
:1009C0000326F6432020C51AA9401746AF40DA4057
:1009D0000A4320460399D840091473181905511881
:1009E000039A3843D2075140AC4009D001229440C9
:1009F00006D30022401C5141002C01D14008400088
:100A00001E4A934212D3012203989206904207DBBA
:100A10000520400709181A480143C012414004E06C
:100A2000032040070818C10FC907002009B0F0BD16
:100A30000020F107FAE705180C464C4111486D42B9
:100A4000A04115D394181A465A410E486442904169
:100A50000ED301204A004005824209D35A00824247
:100A600006D35940C90F084AC90700201143DDE7E2
:100A700000200649DAE700000000FF07FE0700003B
:100A8000FFFFFF7F0000E0FF0000F07F0000F87F25
:100A90000121C9050123411842001B06D3185B0E32
:100AA0000AD0C1100722D206891840075242D1420B
:100AB00001D5520089187047090208D50146002A5D
:100AC00003D0C10FC907002070471046704742028B
:100AD00002D0002002497047072109050143F4E7CD
:100AE0000000F87FF0B5FF252D04C609C209FF27D5
:100AF00004462E400137CB093E4348402A402B4054
:100B00000746002A6BD0002B69D0AA4267D0AB42BF
:100B100065D0002800DA32460125ED0529432C4333
:100B200009022002090AD21A4B0C7F24E31A434C13
:100B3000000A7C44E35C7D242404121914145B0035
:100B4000A218884201D3521C00E0400049420C46E2
:100B50005C4324115C43DB016415E318040A5C4325
:100B6000C502200D0C4644436419250A5D43230346
:100B7000EC0C0D46654300030019EB184C42A342F0
:100B800001D35B18401CD4052018002B07D05B0054
:100B9000C91804D3401C002901D1400840003F215E
:100BA00089048A4209D3002A08DC1106090F04D0FF
:100BB000032149074018C00FC007F0BD01224100C2
:100BC000120689187F2252069142F6D20521490762
:100BD000C84201D59010F0BDFF20C005F0BD002F28
:100BE00000DA32461648AA4207D2AB4205D21902B1
:100BF000090E17D0F80FC007F0BDFF2563002D06C2
:100C0000AB42F9D84900A942F6D8AB4201D1A9427A
:100C1000F2D0A94201D1002101E061004908D005CC
:100C20000843F0BD1102090EFBD0FF200243D0059E
:100C3000F0BD0A460146104654E700001343000089
:100C40000000C07F10B501469E240002CA15A3070C
:100C5000002A02D01843002A04DBA21A002A0CDD65
:100C6000D04010BD1206120E01D140004008A21A59
:100C700003D4D04040420028F3DDFF224800120692
:100C8000904201D9002010BDC817C043584010BD84
:100C90001F22030C02D10F2200041CD0030E01D12D
:100CA0000002083A030F01D10001121F830F01D186
:100CB0008000921E002801DB4000521ED205511810
:100CC000021251181922904004D3491C002801D166
:100CD0004908490008467047C10FC90700D0404283
:100CE000012292071143D3E701218907D0E770B5AC
:100CF000044685690068C10601D5302600E020263B
:100D0000C00707D070BD62683046A1689047206A6E
:100D1000401C20626D1EF6D570BD70B50446856915
:100D20000078C00707D170BD6268A1682020904795
:100D3000206A401C20626D1EF6D570BD09684A0508
:100D400001D540B27047C905FCD500B270470968AB
:100D50004A0501D5C0B27047C905FCD580B27047BD
:100D6000FFB504460D4681B0243000902168880606
:100D700004D51022E0699143216000E00120A842DF
:100D800001DD471B00E000270498A1697A191018BB
:100D9000081AA0612078C00602D42046FFF7A7FFFA
:100DA000002608E003986268A168805D9047206A89
:100DB000401C761C206204988642F3DB2078C00633
:100DC0000AD52046FFF793FF06E06268A16830204D
:100DD0009047206A401C206238467F1E0028F4DCC1
:100DE00007E000986268A168405D9047206A401C57
:100DF000206228466D1E0028F3DC2046FFF78DFF99
:100E00002078000602D5022005B0F0BD0120FBE7E6
:100E100011680268006A530501D5087009E0D3051E
:100E200001D5088005E0130602D5C21705C100E010
:100E30000860012070470000FFB50C461E468FB0C9
:100E400003CA089009914F007D0D00D16D1E00214D
:100E500008460020C0460321099A89050840002A57
:100E600003DA8200801840080840800D01280A90AB
:100E700002DD0020C0430A90089807430DD0F048D7
:100E8000F049281848430714189800281DD07542C7
:100E9000291E1DDD0A9842421BE01898012802D045
:100EA0000020302104E00020F24305E02154401CE2
:100EB000B042FBDB30460022189B002121540F99E1
:100EC0008B600A60486013B0F0BDBD1B6D1CDFE78E
:100ED0000A9A002900DA69420BA800F02BFD0BAB3F
:100EE00007CB03AB07C30899099800F08FFD6B4649
:100EF00007C30146D4480918002D00910BDDD249E3
:100F000003980A9A49424018002303A903906846AF
:100F100000F0ECFF08E003990A9A0023081803A9DF
:100F20000390684600F08CFF6B4607C30004000C7A
:100F300003D00020C043410800E01046189A002A60
:100F400003D00022009215461EE0751E05D400F065
:100F5000EBFA303262556D1EF9D50122084307962F
:100F600002D000227F1C04E02078302801D100222A
:100F70007F1E002A069787D01EE0112D07DA00F0A9
:100F8000D3FA303262556D1C02460A43F5D108434C
:100F900003D00098002819D00EE00021681E05E05B
:100FA000235C625C63542254401E491C8142F7DB7F
:100FB000A81B401E07950690079A18990020A05478
:100FC0000F98079B069A81600CC07CE711260020D1
:100FD000189059E7D21DF0B50D460446D10893B0DC
:100FE000C90003C90C900D9103F044FD02460D9811
:100FF000C00F01D02D2007E02068810701D52B20EC
:1010000002E04007C00F4001032A0F9001D0072AD9
:1010100005DB03462946204600F030FC0EE120782F
:10102000800601D5E76900E006272846652D04D033
:10103000662814D0672D69D12DE00020112F009073
:1010400001DB112300E07B1C0CAA03A910A8FFF709
:10105000F3FE1199002610987D1C0E9142E00120AC
:101060003B460CAAC0070B900120009003A910A8D2
:10107000FFF7E2FE119D12981099002600280E95A8
:1010800001D1781C0D18781B02D446427D1C761EB7
:10109000E81B00903AE0012F00DA01270020112F11
:1010A000009001DD112300E03B460CAA03A910A823
:1010B000FFF7C2FE11993D46109800260E91217847
:1010C00009070BD40E99A94200DA0D4603A9012D98
:1010D00004DD4A19203AD27F302A06D0B84201DA1C
:1010E000011D04DA012100910FE06D1EEFE70028D9
:1010F00002DC86192D1A03E0411CA94200DD0D46D1
:10110000801B401C00900120C0070B902078000736
:1011100005D40098A84202DB0020C0430090694635
:101120000020C8720B98012102AF0337C90788421B
:1011300025D0022010902B2011900B9800280BDA5C
:1011400040420B902D20119006E00B9800F0D4F94E
:1011500030317F1E0B9039701099481E0029109075
:10116000F3DC0B980028F0D111987F1E387020888E
:10117000000501D5452000E065207F1E387001A8DC
:10118000C01BC01D0B900F98002800D001204119F2
:101190000098C01709180B980818A169081A401E72
:1011A000A0612078C00602D42046FFF7A0FD0F986A
:1011B000002805D06268A1689047206A401C206220
:1011C0002078C00625D52046FFF791FD21E0002EAE
:1011D00007DB0E98B04204DD03A86268805DA16859
:1011E00002E06268A16830209047206A761C401CAB
:1011F00020620098401E002800900AD100F090F96B
:10120000C06862680168405CA1689047206A401C21
:10121000206228466D1E0028D9DC07E06268387815
:10122000A1687F1C9047206A401C20620B99481ED1
:1012300000290B90F2DC2046FFF76FFD032042E609
:1012400001FCFFFF104D0000E1DFFFFF01694A1CB8
:1012500002610878704700B58FB0029100210591B6
:101260000549019379440391114604906846FFF7BC
:10127000A7F80FB000BD0000E5FFFFFF0A6810707F
:10128000521C0A6070470CC908399A4202D2531C9A
:101290000B601070704710B54369002B02D0C04638
:1012A000C04601E0FFF72CF8012010BD127801467E
:1012B00024310A7000224A700122ECE711680022F2
:1012C000D243E8E7F7B50446154686B02B48784484
:1012D000002703C83E460090019111E007986A4636
:1012E0007100415A02A800F051FE411C07D021783C
:1012F000890603D5E269391891420ED83F18761C49
:101300002078800602D5E069B84206DDAE42E5DB12
:1013100007987100405A0028E0D1A069C01BA06165
:101320002046FFF7E4FC154878445A3803C800907B
:101330000020019116E041006A460798415A02A830
:1013400000F024FE0590401C0AD0002505E06268EC
:1013500002A8A168405D90476D1C05988542F6D3B0
:101360000498401CB0420490E5DB206AC01920625A
:101370002046FFF7D2FC09B0F0BD0000BA3B0000E8
:10138000F7B5D21D0025D20815A6D200F52905CA49
:1013900011D0002A05DA00214042914111A60A46E7
:1013A00008E0009909688B0701D50FA602E04907FC
:1013B00001D50EA601251146009F0024243704E024
:1013C00000F0B2F830323A55641C02460A43F7D1B5
:1013D0002B46324621460098FFF7C2FCFEBD0000B6
:1013E000000000002D0000002B0000002000000085
:1013F00070B504460021243408E05507D2086D0F6B
:10140000303565545D072A43DB08491C15461D43EA
:10141000F3D10468002310A2250708D520252C400D
:101420000C4304D0C46901230CA2641EC461FFF7FD
:1014300097FC70BD10B5044621461068FFF787FC85
:10144000002302462046FFF7D3FF10BDD21DD1086E
:10145000C9000CC9CCE7000000000000300000000B
:10146000F8B50F460188090502D5224C7C4402E0FC
:10147000204C7C440E3405460021243508E0160734
:101480001209360FA65D6E541E0732431B09491C14
:1014900016461E43F3D1224604780023240705D5BF
:1014A000702F06D0002901D002231132FFF758FC1B
:1014B000F8BD01231032F9E770B504460D46214608
:1014C0001068FFF744FC0023024629462046FFF738
:1014D000C7FF70BDD21DD308DB000CCBC0E730B412
:1014E000036820241268234303600823C36130BCCF
:1014F0000023B5E7243A000001468008081A0209D3
:101500001018020A1018020C1018C00882001218D5
:101510005200891A01E0401C0A390A29FBD270479F
:1015200000487047200020200B4670B5024689070E
:101530008008084319469D08141AA941250908077F
:10154000054308092C194841250A01060D43010AE3
:101550002C194141200C0D0428430D0C00194D415C
:10156000002140194D41C00869070843E908840F6C
:101570008D002543840024184D4124196D41121B10
:10158000AB4107E00925ED432C11521963410024BA
:10159000401C61411C460A250026551BB441F1D26E
:1015A00070BD0000D21DF0B504460D46D0088DB0C8
:1015B000C000466807683146384603F05BFA0246C9
:1015C000F00F01D02D2307E02068810701D52B23E0
:1015D00002E04007C00F43016846002B037001D0B2
:1015E000012000E00020032A0A9001D0072A04DB32
:1015F0002946204600F042F92DE12078800601D4EA
:101600000D2500E0E5697000400D0D2D01904BDACD
:10161000300D00210B9008460020C04603218905AB
:101620000840002E05DA82008018C20F1018401002
:1016300008408015012801DD0020C043A9000023D7
:10164000182906D39C460A460123183A1B07D340A3
:1016500003E001221205CA4094460C31202902D32E
:101660003A46203900E032468A40002802DD002A4E
:1016700006D119E0002817D10121C9078A4213D3E6
:10168000194663467F185E41002806D10120C00735
:10169000824202D1084687439E430B98310D814216
:1016A00002D00198401C01902088000502D57149A4
:1016B000794402E06F49794419396B460A9830221F
:1016C0001A540A980A7C401C1A54401C0A9001982B
:1016D000002801DC302000E031201872019A01203E
:1016E000002A02D0644BD21804E072003A4302D0C0
:1016F000614A521C0192002D02DC2278120703D5A8
:101700006A462E20507202200022864694460CE043
:1017100032033601120F6D1E8B5C02AA135462460F
:10172000521C401C9446052A01DA002DF0DC0022F0
:1017300002AE08E03B0F3F01CB5C521C6D1E3354E0
:10174000401C082A01DA002DF4DC23689A0601D532
:1017500011E0401E704504DD3218203AD27F302A55
:10176000F7D0002807DD3218203AD27F2E2A02D186
:101770001A0700D4401E002D03DD3E223254401CC7
:101780006D1E497C31540199401C002906DA2D2137
:10179000471C315401984042019003E02B21471C23
:1017A000315401987D21C900884206DBFEF7F0FE26
:1017B0003030F0557F1C019101E0642808DB01986E
:1017C0006421FEF7E5FE3030F0557F1C019101E009
:1017D0000A2806DB01980A21FEF7DAFE3030F055C0
:1017E0007F1C01980A21FEF7D3FE3031F1550A988B
:1017F000A1697F1C7A191018081AA0612078C00608
:1018000002D42046FFF773FA216A6E460A98081838
:10181000206204E062683078A168761C90470A98DC
:10182000401E0A90401CF5D12078C00602D5204603
:10183000FFF75DFA02AE09E03078761C3E280DD045
:101840006268A1689047206A401C20627F1EF3D224
:101850002046FFF762FA0DB00320F0BD206A401960
:10186000206203E06268A168302090476D1EEDD3CE
:10187000F8E700001B38000001FCFFFFF8B51F4629
:10188000044601230068DB02032601461840072AAC
:1018900005DB002801D017A506E017A504E0002805
:1018A00001D016A500E016A5102081432160A06993
:1018B000C01E002FA06101D0401EA0612046FFF78E
:1018C00016FA002F09D038466268A1689047206A4E
:1018D000401C2062C01C206206E0206AFAE76268B1
:1018E0002878A1686D1C9047761EF8D22046FFF735
:1018F00014FAF8BD4E414E006E616E00494E46002E
:10190000696E660010B54369002B02D0C046C04620
:1019100001E0FFF7D7FC012010BD128801462431F9
:1019200082840022C2840122ECE711680022D243A3
:10193000E8E70000F7B516468AB0334878446C46AD
:1019400003467C33C06F5A689B680DC42E487844A8
:10195000763003AC0DC80DC43720C00108183721FC
:101960001B30FEF715FE05460C46803D1B3C02D59C
:101970006442012000E000200027099010E0E00709
:101980000CD00C2020497843794432464C39411818
:101990006846012300F054FA6B4607C364107F1CAD
:1019A000002CECD1184F7F442E3F16E0E80712D0F0
:1019B0002001C0190EC80691089307920068F042F2
:1019C00001D1981908903246012306A903A800F016
:1019D00037FA03AB07C36D10641C002DE6D10998DC
:1019E000002806D032466946012303A800F07EFA9B
:1019F00005E001233246694603A800F021FA0A9B5C
:101A000007C30DB0F0BD0000A43500000346400040
:101A10000A4610B5400D0BD00121C9070F24A402BE
:101A200000191C0364082143540D2143D20207E02E
:101A300000210120F2E7D40F490021435200401E4B
:101A40000029F8DADB0FDB07184310BDFFB50D46A0
:101A5000144685B04868516802F0F3FF0091019088
:101A6000A868A16802F0EDFF02910390A868616880
:101A700002F0E7FF029A12188242029201D201207C
:101A800000E00020019A0B18D2180028019202D021
:101A90008A4202D903E08A4201D2012000E00020FC
:101AA0000099081800906868A16802F0CAFF029ABD
:101AB00012188242029201D2012000E00020019A15
:101AC0000B18D2180028019202D08A4202D903E0F2
:101AD0008A4201D2012000E00020009908180090FD
:101AE0002868216840004900400849084018FA4920
:101AF000471814E001994000C90F0843009001986D
:101B000002994000C90F08430190029803994000D0
:101B1000C90F08430290039840007F1E039000986D
:101B20000028E7DA0898002801D0EC4E00E00026F3
:101B3000B74201DA012000E00020002804902AD0FA
:101B4000F71BF806C00E15D0029B2021091A039A34
:101B50008B401A430392029A019BC2408B401A4366
:101B60000292019A009BC2408B4000991A43019255
:101B7000C14000917B110DD06F460320C11A03D5DF
:101B800000218200B95003E08A008100BA587A50DF
:101B9000401EF3D5374603980299002800D0012053
:101BA000014308980291002808460CD0002800D074
:101BB00001200199019A490508430121D20AC9026D
:101BC000D202019200E001210E9B0122D207012BDB
:101BD00002D0002B03D013E0002807D120E0904270
:101BE00004D890420CD1019B0B4209D0019B59189B
:101BF000019105D10099491C009101D17F1C0092EF
:101C000000280DD0102108460020C0460498002866
:101C100006D00F98002803D0082108460020C046AF
:101C200028682168019B009A4840C10F0598C907A0
:101C300039430EC009B0F0BDFFB587B0099A0898C6
:101C40000899536892684068896896460022039311
:101C500017469446089A12685300099A5B0812685E
:101C6000520052089A1A9E4BD4180A9A002A01D0A0
:101C7000352200E0402206920022012315460492FC
:101C8000DB07059324E0002D05D175460346039E2E
:101C90004D1BB34109D375466646039B491B049D02
:101CA0009841059B7519AC465F4163463B4308D09C
:101CB000059B049EDD0776082E435B08049605937A
:101CC00001E0521E641EC50FED0749184041521C29
:101CD000069B9A42D7DB002D04D17546039A6B1AF6
:101CE000824101D203200CE0039A0B466B40424034
:101CF000134303D0014303D0012002E0022000E09F
:101D00000020614601910021009702910A99002963
:101D100005D0614640020143704B019102E080070B
:101D2000002302909C4201DA012000E0002007001D
:101D30003AD01A1BD006C00E15D0029D2021019C5E
:101D4000091AC5408C402543029C8C4000D00124D8
:101D50002543019C0295009DC4408D4000992C4371
:101D60000194C140009154111DD06D460221002202
:101D700002290CD10320001B07E0002804DB8600A9
:101D8000AE59002E00D00122401C0328F5DB081BB1
:101D900002D588002A5004E08000285810438A00A9
:101DA000A850491EE3D51C460A98002802980CD07A
:101DB000002800D001200199019A4905084301211A
:101DC000D20AC902D202019200E00121109B012235
:101DD000D207012B02D0002B03D013E0002807D13B
:101DE0001FE0904204D890420CD1019B0B4209D0D5
:101DF000019B5918019105D10099491C009101D10D
:101E0000641C009200280CD0102108460020C04617
:101E1000002F06D01198002803D008210846002082
:101E2000C04608980999019A009B006809684840D3
:101E3000C10F0798C907214382600AC00BB0F0BDEB
:101E400000B585B0019300920A460146002302A81E
:101E5000FFF7FCFD02A807C805B000BDFFB50A46A4
:101E60001F4685B00799019301230091014602A8FE
:101E7000FFF7ECFD02990398049ECA0F4900D207B0
:101E800000920F22490892028C1A0021002800DBE0
:101E90000C46450013486D08844214D3079A002A63
:101EA00004DA441E0026104DF64302E004460D46B7
:101EB0000E46102108460020C046002F03D0042102
:101EC00008460020C0462005E90A08430099084357
:101ED0006905F20A1143ADE602C0FFFF013C0000B4
:101EE000FF3F0000FF070000FFFFFF7F00B585B048
:101EF000019300920A460146002302A8FFF79CFEC8
:101F000002A807C8A8E7FFB50A461F4685B007998B
:101F1000019301230091014602A8FFF78DFE02996B
:101F20000398049ECA0F4900D20700920F22490865
:101F300092028C1A0021002800DB0C464500114853
:101F40006D08844214D3079A002A04DA441E00263E
:101F50000D4DF64302E004460D460E46102108469C
:101F60000020C046002F03D0042108460020C046B0
:101F70002005E90A0843009908436905F20A11435C
:101F800058E60000FF070000FFFFFF7FF8B5164688
:101F90000C46054600F072F80368FF200230C05C72
:101FA000012807D0FF2C0FD8185D00280CD0012085
:101FB0002C70F8BDFF333246214608331868C71825
:101FC00028460023B847F8BD0020C043F8BD0000F4
:101FD00010B5FF231B0644009C421DD84C009C42B8
:101FE0001AD80346124A0B4307D4401A02D3EFF320
:101FF000008010BDEFF3008010BD081A03D3EFF38B
:102000000080904305E0EFF3008001219043C90771
:10201000084380F3008810BD0D231B041A4204D02E
:102020001146002000F092F810BD00F0A7F810BD96
:102030000000009000487047000020207546FFF720
:10204000F9FFAE46050069465346C008C000854604
:1020500018B020B5FEF710F960BCB6460026002780
:10206000C0C5C0C5C0C5C0C5C0C5C0C5C0C5C0C548
:10207000403D490849008D467047000010B5FFF704
:102080004FFA001D10BD00BFB12A000010B5044674
:10209000C046C0462046FEF7E1F810BD82078B0718
:1020A0009A423FD170B5920F0AD0032402780B7880
:1020B000401C491C002A33D09A4231D12042F5D12C
:1020C000214EF40104C808C9951B9543254018D139
:1020D0009A420FD104C808C9951B9543254010D1D9
:1020E0009A4207D104C808C9951B9543254008D1D9
:1020F0009A42E7D012BA1BBA01209A4200D240425B
:1021000070BD12BA1BBA2DBA18241000E040190095
:10211000E140401A05D12E00E64002D1083CF4D13E
:10212000D01A70BD02780B78401C491C002A09D0D7
:102130009A4207D102780B78401C491C002A01D032
:102140009A42EFD0D01A704701010101C80212D59E
:102150004803400F002804D0C803C0430121884031
:102160007047EFF3008000010009032109070843CD
:1021700080F30088704700207047000010B50248C7
:1021800000F004F810BD00000000C07F10B50C4640
:102190001107090F092904D00A290AD008290CD1EE
:1021A00004E011460820FFF7D1FF06E0510606D5EE
:1021B00001E0510601D50120C007214610BDD1061E
:1021C00007D501010909CC084907000E00060443A0
:1021D00009E0410F20024907000A0143200E0006D2
:1021E0001D22D14101430846E7E7811E091F00BFB8
:1021F000FCD27047F0B582B0002A31D091235B0148
:10220000C3180320801A00900220C043801A019056
:1022100056420F2007020020DC693C4221D00C5CB2
:102220001C60019C2418241D1ED0DC693C421DD07A
:102230000C1865781D603518AD1C19D0DD693D425C
:1022400018D0A5781D60009D2D1815D0DD693D4280
:1022500014D0E4781C60001D3418DDD1104600E075
:10226000002080B202B0F0BD1046FAE7401CF8E74B
:102270001046F6E7801CF4E71046F2E7C01CF0E7D2
:1022800070B50A780C231A400124240305196E68DE
:102290009E43B2186A60497807221140035993435C
:1022A0005918015170BD0000F0B57D4A82183B4BB2
:1022B000C31808794E793A4D7B4C002E23D0202844
:1022C00004D00526F601002803D003E0354E00288F
:1022D00000D18826576F2F4037435767976F2F409D
:1022E00037439767566B26405663966B2640966336
:1022F0000026566596658F26F6435F6837405F6017
:102300009F6837409F608E79096820280BD000288D
:1023100019D1491E5160D76E2F4088210F43D766CF
:102320001746703719E0491E5160D16E29401D4F84
:102330003943D166116F294039431167012149079B
:10234000194D174609E049085160D76E2F40052105
:10235000C9010F43D766174670373C682C400C43C1
:102360003C60D16A504C2140D162116B2140116315
:102370000021D16411658F21C943D46F0C40D4670B
:102380001C680C401C600643BD2030401168074BA0
:102390000B40C018801C1060F0BDC04684180000BF
:1023A00024493E0001040000FFFFFFCF4000FFCFA3
:1023B000B0B53B4A80184A6842600A78222A57D84A
:1023C000930001A4E3589F46672400007124000095
:1023D00067240000712400007124000071240000B3
:1023E0007124000071240000712400007124000099
:1023F0007124000071240000712400007124000089
:102400007124000071240000552400007124000094
:102410005524000071240000712400007124000084
:102420007124000071240000712400007124000058
:102430007124000071240000712400007124000048
:102440007124000071240000552400007124000054
:102450005524000003231B0704689C4301235B07EA
:10246000E318036004E003231B0704689C43046033
:102470000B69C360CB680B4C1C40C36A0A4D1D40FE
:102480002B19C3620368094C1C400460097A11438C
:102490003F2211400368934359180160B0BDC04604
:1024A00004180000777702008888FDFF7F00FFFF97
:1024B00010B507239B04194092008018024A8458E3
:1024C0009C436118815010BD3018000010B5029C6B
:1024D000A400001911431943014A815010BDC046A0
:1024E0005018000092008018014A81507047C04681
:1024F0001018000010B50122120383180C789C609C
:102500004B7883508978014A815010BD0C1100002E
:10251000B0B51122120283580124A34383508B7853
:102520000C881C438B882343094C1C408358094D5D
:102530001D402B1983508B79CC791C43097A214398
:102540007E231940801842689A4351184160B0BDFB
:1025500018670000E798FDFF10B5012212038318E9
:102560000C789C604978815010BD0000F0B581B0B6
:102570001B491C4808601C4D02262E60F14F38682C
:1025800080070BD53224052001F034FA641E386828
:10259000800701D52006F6D120060DD001242C603D
:1025A000052001F027FA2C6181200D4908602E607A
:1025B0002E64002001B0F0BD8120094908602E6022
:1025C0002E6401272F612E612F600524204601F023
:1025D00011FA2E60204601F00DFA384601B0F0BD28
:1025E000088042408100040090120A40B0B5B0203B
:1025F0000025294600F036FA2846294600F032FA2E
:102600001020294600F02EFA00240121204600F077
:1026100029FA681C45B2002DF6D5B120214600F0FC
:1026200021FA2046214600F01DFA1020214600F034
:1026300019FA00250121284600F014FA601C44B262
:10264000002CF6D5B220294600F00CFA284629467F
:1026500000F008FA1020294600F004FA00240121B5
:10266000204600F0FFF9681C45B2002DF6D5B320D6
:10267000214600F0F7F92046214600F0F3F910203A
:10268000214600F0EFF900250121284600F0EAF983
:10269000601C44B2002CF6D5B420294600F0E2F9C3
:1026A0002846294600F0DEF91020294600F0DAF924
:1026B00000240121204600F0D5F9681C45B2002D08
:1026C000F6D5B520214600F0CDF92046214600F090
:1026D000C9F91020214600F0C5F90025012128463E
:1026E00000F0C0F9601C44B2002CF6D5B620294693
:1026F00000F0B8F92846294600F0B4F91020294620
:1027000000F0B0F900240121204600F0ABF9681C6C
:1027100045B2002DF6D5B720214600F0A3F920469A
:10272000214600F09FF91020214600F09BF900207F
:10273000012100F097F9601C44B2002CF7D5B0BD20
:10274000F0B581B07748006880075BD47648774958
:10275000016077498120C8607648801E086008685B
:10276000086001200090C507734E35603563002274
:10277000724F7348734B35603C6804603C68016875
:102780008C420BD139680468A14207D139680468CA
:10279000A14203D139680468A142EFD03146103913
:1027A0000D603968016039680468A1420BD139684D
:1027B0000468A14207D139680468A14203D139688D
:1027C0000468A142EFD01968C90003D4511C632AE0
:1027D0000A46D0D3FA4AFB481060FB4BFB4919600C
:1027E00018681860D960D868D860009840061968E1
:1027F00001431960D9680143D960101FF64901608F
:1028000000F00CFBE8480268F2490A6002680B68B5
:10281000D21AC72A0ED802680B68D21AC72A09D85A
:1028200002680B68D21AC72A04D802680B68D21A49
:10283000C82AEBD3AE200024214600F013F920462D
:10284000214600F00FF91020214600F00BF9402638
:102850003046214600F006F98120214600F002F9B9
:10286000CF20214600F0FEF8A120214600F0FAF822
:10287000C820214600F0F6F8A6252846214600F09B
:10288000F1F8A820214600F0EDF83F20214600F0A5
:10289000E9F8D320214600F0E5F82046214600F073
:1028A000E1F8D520214600F0DDF88020214600F037
:1028B000D9F8D920214600F0D5F8F120214600F0C2
:1028C000D1F8DA20214600F0CDF81220214600F0A0
:1028D000C9F8DB20214600F0C5F83046214600F05B
:1028E000C1F82020214600F0BDF80220214600F06A
:1028F000B9F88D20214600F0B5F81420214600F0EB
:10290000B1F8A420214600F0ADF82846214600F099
:10291000A9F8FFF76BFEAF20214600F0A3F801B045
:10292000F0BDC04634120F4004080F40030000B150
:102930000C80424083000C00A0120A402803202093
:102940002003202080130A40F0B587B01C46009277
:102950000E46049058080590082B02D106200690D8
:1029600007E06007E108002800D0491C05984143B2
:10297000069130465038C0B20025294600F072F862
:10298000049F380910300390294600F06BF80F209F
:1029900038400290294600F065F8069800283BD0A0
:1029A00000982038C0B2009000011C49081804901B
:1029B0002F4601940EE00620009948431849081854
:1029C00040190078012100F04DF86D1C7F1C06981D
:1029D000874221D228460599FDF7CCFD082C15D059
:1029E000002913D130465038C0B234460026314653
:1029F00000F038F80398314600F034F80298314678
:102A00002646019C00F02EF8761C01E0082CD2D05E
:102A1000102C01D10498D3E707B0F0BDA0510000FD
:102A2000784F0000F0B583B01578002D18D0074618
:102A3000082B01D05E0800E00626002402920196D1
:102A4000F8B2EAB20E461D46FFF77EFF029A2B4609
:102A50003146019EBF19641CE0B2155C002DEFD118
:102A600003B0F0BDF0B583B002AA5070481E81419A
:102A7000880110704C4D2E68FA48022411462246F7
:102A8000FFF7B8FB4948846149490A68920608D4AF
:102A90000A68920605D40A68920602D40A68920669
:102AA000F3D50A1F08390B68424C1C4078340C607F
:102AB0001168414B0B404149591811600A360168B1
:102AC00089076FD42968B14211D20168890769D496
:102AD0002968B1420BD20168890763D42968B142E1
:102AE00005D2016889075DD42968B142E7D334482B
:102AF00034490160C1498120C8603448801E0860A3
:102B00000868086001200190C607314F3E603E63AF
:102B10000020304A7E4B3E602C6814602C6811689F
:102B20008C420BD129681468A14207D12968146826
:102B3000A14203D129681468A142EFD03946103967
:102B40000E602968116029681468A1420BD12968B8
:102B50001468A14207D129681468A14203D12968E9
:102B60001468A142EFD01968C90003D4411C63283E
:102B70000846D0D3124A13481060A04B134919607D
:102B800018681860D960D868D8600198400619683C
:102B900001431960D9680143D960101F0E490160D3
:102BA00000F03CF903B0F0BD2803202030100F40A6
:102BB00018120F4000F8FFFFF8FF00F007000200B6
:102BC00004080F40030000B10C80424083000C0059
:102BD000A0120A402003202001000026F0B587B093
:102BE000484849490160494D01262E610524204687
:102BF00000F000FF2E60204600F0FCFE444908680B
:102C00000F460690204600F0F5FE2E61204600F0AB
:102C1000F1FE2E60204600F0EDFE3868059020465B
:102C200000F0E8FE2E61204600F0E4FE2E60204613
:102C300000F0E0FE38680490204600F0DBFE2E61D4
:102C4000204600F0D7FE2E60204600F0D3FE386804
:102C50000390204600F0CEFE2E61204600F0CAFE12
:102C60002E60204600F0C6FE38680290204600F034
:102C7000C1FE2E61204600F0BDFE2E60204600F011
:102C8000B9FE38680190204600F0B4FE2E6120465F
:102C900000F0B0FE2E60204600F0ACFE1C48076835
:102CA000204600F0A7FE2E61204600F0A3FE2E6015
:102CB000204600F09FFE16480568204600F09AFE68
:102CC0000698420004210A400220059B03409A18FE
:102CD0009200049B5B000B40D218039B03409A18A0
:102CE0009200029B5B000B40D118019A02405118E0
:102CF000490007407818A907C90F0818C0B207B0E3
:102D0000F0BDC046088042408100040090120A4095
:102D100080130A40F0B53949872008670125AA03C6
:102D2000374802608424CC656A020260354B1A463B
:102D3000183A88261660EE03334A16609C62EC054A
:102D40001460324CA61C0E600F680F60CE60CE6817
:102D5000CE606D060E682E430E60CE682E43CE60A8
:102D600082258D642A4ECE64DD60DE620E46083E0A
:102D7000812535600E1F3560CD621E46243E3560CC
:102D80001E46203E35601E46143E35601E46283ED7
:102D900035601E461C3E3560CD664D671C601E6862
:102DA0001E605C605E685E609C609E689E608C6574
:102DB0008E6D8E654D655C625D6A5D621C631D6B28
:102DC0001D635C635D6B5D631C641D6C1D640C6442
:102DD0000B6C0B644C644B6C4B64114630390D4BDF
:102DE0000B601146403903240C60D91C1160014668
:102DF0003039094A0A600260F0BDC0460C8042408A
:102E0000D0320A40AC804240D0120A4081000C000F
:102E1000820004008070010080A0010080B511488C
:102E20001149FFF72DFA03204102104802680A43B6
:102E3000026001210A020368134303600022426119
:102E400007224262836B934383631202836B934333
:102E50008363826A042313438362826A0A43826221
:102E600080BDC04600000F409057000000120F4088
:102E7000F0B583B0304C31492046FFF73BFB304979
:102E80002046FFF711FA2F4801682F4A0A400260D6
:102E900000250095204629462A462B46FFF716FBBB
:102EA000204629462A46FFF703FB7D20C600204620
:102EB00031462A46FFF716FB012700972046294690
:102EC0002A462B46FFF702FB204629463A46029740
:102ED000FFF7EEFA2046314634463A46FFF702FB4A
:102EE00002260096144F384629462A462B46FFF7FD
:102EF000EDFA384629463246FFF7DAFA38462146D7
:102F00003246FFF7EFFA03260096384629462A464E
:102F10002B46FFF7DBFA384629463246FFF7C8FA58
:102F2000384621463246FFF7DDFA084802998160AB
:102F30000F21016003B0F0BD0000864092570000F1
:102F400098570000041886407F00FFFF001186405C
:102F50000C48002101600320C1430B480246083A97
:102F600013680B4013600168012291430160110254
:102F700003688B4303601103001F02680A43026069
:102F80007047C04608030B4008010B400848094938
:102F90004160FF210906084A13688B430321890712
:102FA0005918116000218160072101607047C046F7
:102FB00010E000E0FF7C000020ED00E010B5084CC0
:102FC00008492046FFF796FA07492046FFF7F0F92F
:102FD000064801680122114301600548026010BDE6
:102FE00000208640A0570000A457000028308640EB
:102FF0000831864010B5144C14492046FFF7ACFA4E
:1030000013492046FFF784FA0321CA0311480368D5
:103010009343036002692F4B13401A3303614269E3
:103020000A433C218A4342614168012211404368BE
:103030009343591841609102074B1C680C431C6074
:1030400001681143016010BD00801040B8570000B6
:10305000BA570000009110402890104010B5194C4C
:1030600019492046FFF778FA18492046FFF750FA29
:103070000320C103164802688A4302600169154AA9
:103080000A4011320261416917220A4328218A430A
:103090004261426801210A4043688B439A184260AA
:1030A0008A020D4B1C6814431C60FF2212040B4B58
:1030B0001C6894438A05A2181A6002680A430260D9
:1030C00010BDC04600201040C4570000C657000085
:1030D000003110400000FFFF283010400CE400E0F9
:1030E00080B500F01BF8FFF715FEFFF731FFFFF783
:1030F000BFFEFFF763FFFFF791FEFFF77BFFFFF7D0
:10310000ADFFFFF743FFB820024900220A540249ED
:103110000A5480BDA0012020E4002020F0B581B039
:103120000D480E4941600E4A51600E4B59600E4CDD
:1031300061600E4D69600E4E71600E4F79600E49F0
:1031400001601160196021602960316039601020D0
:10315000FFF74BF801B0F0BD00080A40030000B1D2
:1031600000280A40000886400028864000080F40DA
:10317000008810400028104001000026F0B581B002
:10318000514A81211160514F02243C603C64012569
:103190003D61009040B210370028384600DA4B48B5
:1031A0000460204600F026FC4848056005263046AD
:1031B00000F020FC45480561304600F01BFC0098FB
:1031C0004006384600D541480460204600F012FC15
:1031D0003E480560304600F00DFC3C480561304635
:1031E00000F008FC00988006384600D53748046097
:1031F000204600F0FFFB35480560304600F0FAFB42
:1032000032480561304600F0F5FB0098C0063846AC
:1032100000D52E480460204600F0ECFB2B480560EA
:10322000304600F0E7FB29480561304600F0E2FB3C
:1032300000980007384600D524480460204600F076
:10324000D9FB22480560304600F0D4FB1F480561D9
:10325000304600F0CFFB00984007384600D51B48A9
:103260000460204600F0C6FB18480560304600F0B8
:10327000C1FB16480561304600F0BCFB0098800792
:10328000384600D511480460204600F0B3FB0F48D3
:103290000560304600F0AEFB0C480561304600F09A
:1032A000A9FB0098C00700D0084F3C60204600F002
:1032B000A1FB064C2560304600F09CFB25613046A2
:1032C00000F098FB01B0F0BD0880424090120A4027
:1032D000A2480168491C01607047C04680B5054896
:1032E0000168C9B2012903D10121816200F0F8FB14
:1032F00080BDC046203086400120C00402490860DD
:10330000024908607047C04680E200E000E100E04A
:1033100092490A680B689B1A83420BD20B689B1A6E
:10332000834207D20B689B1A834203D20B689B1A15
:103330008342EFD37047C04604480068C0B20B28F0
:1033400003D103480068034908707047209010407B
:103350002491104030032020F0B582B02548006849
:10336000C0B20B2843D124480178244A1268D2B253
:1033700002290AD0012931D1552A36D1204A022109
:103380001170204A5523537030E01D4B1C781D49A5
:103390000A55621C1A70D2B2092A28D38B78CA78CF
:1033A000019200935A400D796A404C7962408E79BF
:1033B0007240CF797A400B7A00219A4216D1124A94
:1033C000009B13702B02019D5B19538033021B1964
:1033D000938097710D4A0123137007E0AA2A06D142
:1033E0000849AA220A70012100E00021017002B000
:1033F000F0BDC04620301040190320202431104079
:10340000D8022020CC0220205C0220206402202050
:1034100070470000F0B581B001460222024001234E
:1034200003405842D124A043002A00D096380424F7
:103430000C40009400D05A3808250D4000D0323896
:1034400010260E4000D0323020270F4000D05A30D6
:1034500040240C4000D0963052089A18009B9B08DC
:10346000D218EB08D2183309D2187B09D218A30955
:10347000D51849B2002912D4290612D1114804687E
:103480000021204601F02FFB002805D10021204615
:1034900001F011FB002812D10B4801B0F0BD6D1CEA
:1034A000D230FDF719FC0446E8B2FDF71DFC0146D9
:1034B0002046FDF717FB0349086001B0F0BD034843
:1034C00001B0F0BDD80020200000FAC30000FA438C
:1034D000F0B581B00020014600F0A4FF1F4E346813
:1034E0003068001B00097D210F017C2806D80520CB
:1034F00000F07CFA3068001BB842F8D300F0E2FA22
:1035000000F092FA164901F0CBFA002812D1B3204C
:10351000C443134D00F0B6FA2046214600F082FF66
:10352000052000F063FA00F07FFA294601F0DBFA8B
:103530000028EFD10020014600F074FF34683068A5
:10354000001BB84203D2052000F050FAF7E7054807
:1035500000F0AAF800F0B6FA01B0F0BD2803202070
:10356000000016430000B442F0B581B014460D4689
:10357000FFF750FF00F03CFD0646084F3846314645
:1035800001F0E2FBFDF75EFB28803046394601F092
:10359000E9FAFDF757FB208001B0F0BD0000AF4312
:1035A000F0B581B00093154602460846114601F079
:1035B000CBFB06463A4901F089FA002829D1394F58
:1035C000374C3046394601F0CDFA0646214601F027
:1035D0007DFA00281DD13046394601F0C3FA06466F
:1035E000214601F073FA002813D13046394601F024
:1035F000B9FA0646214601F069FA002809D1304699
:10360000394601F0AFFA0646214601F054FA002887
:10361000D7D1E749304601F043FA002829D1E54FD8
:10362000E34C3046394601F09DFA0646214601F04A
:1036300037FA00281DD13046394601F093FA064684
:10364000214601F02DFA002813D13046394601F009
:1036500089FA0646214601F023FA002809D13046AE
:10366000394601F07FFA0646214601F03CFA00286F
:10367000D7D1304601F010F80446CF4E30462146EF
:1036800001F062FBFDF7DEFA28802046314601F0AA
:1036900069FAFDF7D7FA0099088001B0F0BDC0467D
:1036A000000034430000B4C3F0B587B00446BE4800
:1036B0000068019000F01EFBBC480068214601F044
:1036C00043FB0646BA4901F0EBF9002829D1B94C71
:1036D000B74D3046214601F045FA0646294601F02D
:1036E000DFF900281DD13046214601F03BFA06469D
:1036F000294601F0D5F9002813D13046214601F0C2
:1037000031FA0646294601F0CBF9002809D13046A6
:10371000214601F027FA0646294601F0E4F900287F
:10372000D7D1A549304601F0D1F9002829D1A34CC1
:10373000A14D3046214601F015FA0646294601F012
:10374000C5F900281DD13046214601F00BFA064686
:10375000294601F0BBF9002813D13046214601F07B
:1037600001FA0646294601F0B1F9002809D1304690
:10377000214601F0F7F90646294601F09CF9002898
:10378000D7D100208C4C8D4D894F0590029003902D
:10379000009600F077F900F0ADFA844801683046F1
:1037A00001F0D2FA0646214601F090F9002827D10F
:1037B0003046294601F0D6F90646214601F086F941
:1037C00000281DD13046294601F0CCF90646214695
:1037D00001F07CF9002813D13046294601F0C2F9E6
:1037E0000646214601F072F9002809D130462946E3
:1037F00001F0B8F90646214601F05DF90028D7D15D
:103800003046394601F04CF900286A4C039D27D117
:103810003046214601F0A6F90646394601F040F946
:1038200000281DD13046214601F09CF90646394654
:1038300001F036F9002813D13046214601F092F903
:103840000646394601F02CF9002809D130462146B8
:1038500001F088F90646394601F045F90028D7D12C
:103860002846314601F07EF90546554C214601F0C7
:1038700022F9002800D12C462046524D294601F05D
:1038800032F9002800D1254631464F4801400691C3
:1038900008464E4901F00FF9074600284C4800D170
:1038A0003846294601F0F8F90446002F494801D16D
:1038B0007F20C0050395314601F0EEF9214601F065
:1038C00051F904463046059901F03EFA0146FF20C1
:1038D0008005002F059000D13F4801F0DDF9214619
:1038E00001F040F90446002F3C4D00D13C4D2046EC
:1038F00035490840294601F0F6F8074600212046E0
:10390000049101F0CDF8002802D10120C0072D1844
:10391000002F00D125460698059901F0CCF8002823
:10392000EF4F00D125462846FDF78CF901463B2094
:10393000C043401A00B27D22D200904200DB104604
:10394000284B9842E44CE54D00DC1846283109B27A
:10395000914200DB1146994200DC194600F062FDFD
:103960000698059901F09CF8002804D102980128D6
:1039700010D8401C04900C4800680199401A1A495C
:10398000884207D8052000F031F804980290059687
:10399000009EFEE60020014600F044FD642000F099
:1039A00025F807B0F0BDC046280320208000202065
:1039B000000034C30000B443000034430000B4C32B
:1039C00000004844000048C4FFFFFF7F0000A04102
:1039D0000AD7233C333373409A99193F0000C843F8
:1039E00000003E4318FCFFFFC409000080B5FFF74C
:1039F0008FFC80BD81B0400100900098411E009175
:103A000000280ED00098411E0091002809D000988F
:103A1000411E0091002804D00098411E009100280A
:103A2000EBD101B07047000080B54F4801680068D5
:103A3000002900DC40424D490A680968002A00DC80
:103A400049420818FDF748F93F21090601F024F919
:103A5000014901F021F980BDE17A28410748084970
:103A6000016002680260C160C268C26001610269EF
:103A70000261C161C169C1617047C046D0804240E6
:103A8000810006000C480168C901C90F0068800167
:103A9000C00F0A4A13788B4204D0117032490A6869
:103AA000521C0A6006490A78824204D008702F48E6
:103AB0000168491C0160704780330A408C02202055
:103AC0008D022020284800210160294801602948F2
:103AD0000160294801802B4801802448016070471B
:103AE000F0B583B02048076820490A680292204A4E
:103AF0001568006810601F4802680192096801603B
:103B000000241D48005FFDF7E7F80646781BFDF727
:103B1000E3F81A4D294601F0BFF807461849304628
:103B200001F0BAF8394601F01DF8FDF78BF812499B
:103B30000880144F385FFDF7CFF8064602980199C8
:103B4000401AFDF7C9F8294601F0A6F804463046A8
:103B50000B4901F0A1F8214601F004F8FDF772F8D5
:103B6000388003B0F0BDC0466802202074022020D7
:103B70006C02202078022020700220209A99993E21
:103B80003333333F7C02202007490A68D20708D02C
:103B90000A68D20705D00A68D20702D00A68D2079D
:103BA000F3D1C2B28A61704708911040F0B583B07A
:103BB00001AA0020908090800190019050203D212A
:103BC000062300F0BBFC002802D18648FCF7BCFCB1
:103BD00001A84178007809020818FCF72AFE3F2264
:103BE0001506002422462B46FCF72EFE384B2246B3
:103BF000FCF72AFEFCF7BEFD0446364E306036491F
:103C000000F059FF002801D0344806E0344920462E
:103C100000F046FF002805D13248214600F0A2FFFF
:103C20000446306001A8C178807809020818FCF7C2
:103C300000FE002632462B46FCF706FE244B324699
:103C4000FCF702FEFCF796FD0646274F3860224936
:103C500000F031FF002801D0204806E0204930461E
:103C600000F01EFF002805D11E48314600F07AFF03
:103C70000646386001A84179007909020818FCF766
:103C8000D8FD00273A462B46FCF7DEFD104B3A469E
:103C9000FCF7DAFDFCF76EFD0546144F38600E495F
:103CA00000F009FF002801D00C4806E00C49284626
:103CB00000F0F6FE002805D10A48294600F052FF20
:103CC000054638600A4804604660856003B0F0BD70
:103CD0000080664070002020000034430000B4C320
:103CE000000034C30000B4436C002020800020207A
:103CF0006000202080B5FFF759FF00F001F880BD7B
:103D0000F0B583B001AA00209080908001900190CE
:103D100050203721062300F011FC002802D1314841
:103D2000FCF712FC01AD6878297800024018FCF716
:103D300080FD3F221306002422460093FCF784FDF9
:103D4000294B2246FCF780FDFCF714FD0746274966
:103D500000F0B1FE06462649384600F003FF002E6B
:103D600000D1384623490860E878A9780002401855
:103D7000FCF75FFD2246009BFCF766FD22461A4BCE
:103D8000FCF762FDFCF7F6FC0746184900F093FECD
:103D900006463846164900F0E5FE002E00D13846AA
:103DA000154908606879297900024018FCF741FD3F
:103DB0002246009BFCF748FD22460B4BFCF744FDD6
:103DC000FCF7D8FC0446094900F075FE054620467C
:103DD000074900F0C7FE002D00D1204607490860C2
:103DE00003B0F0BDE557000000409F400000FA44DA
:103DF00000007AC574002020780020207C0020205C
:103E0000F0B586B07849802008600C46103C2060F0
:103E1000A0250595059A531E0593002A0ED0059AF4
:103E2000531E0593002A09D0059A531E0593002AB4
:103E300004D0059A531E0593002AEBD108606B4A03
:103E40001368049320600595059B5E1E0596002B64
:103E50000ED0059B5E1E0596002B09D0059B5E1EAD
:103E60000596002B04D0059B5E1E0596002BEBD11A
:103E700008601368039320600595059B5E1E0596F8
:103E8000002B0ED0059B5E1E0596002B09D0059BCE
:103E90005E1E0596002B04D0059B5E1E0596002B2A
:103EA000EBD108601368029320600595059B5E1EA8
:103EB0000596002B0ED0059B5E1E0596002B09D0A3
:103EC000059B5E1E0596002B04D0059B5E1E059685
:103ED000002BEBD108601368019320600595059BCA
:103EE0005E1E0596002B0ED0059B5E1E0596002BD0
:103EF00009D0059B5E1E0596002B04D0059B5E1E17
:103F00000596002BEBD1086013680093206005959F
:103F1000059B5F1E0597002B0ED0059B5F1E059726
:103F2000002B09D0059B5F1E0597002B04D0059B35
:103F30005F1E0597002BEBD1086017682060059580
:103F4000059B5E1E0596002B0ED0059B5E1E0596FA
:103F5000002B09D0059B5E1E0596002B04D0059B07
:103F60005E1E0596002BEBD1086013682060059556
:103F7000059C651E0595002C0ED0059C651E0595BB
:103F8000002C09D0059C651E0595002C04D0059CCD
:103F9000651E0595002CEBD108600299890904245F
:103FA0000C400399C90902250D400499C905C90FA0
:103FB00069186118019C6409082525406918009C4E
:103FC0002409102525406918FC082025254069187A
:103FD0009B0840241C4061181268520802400A43A2
:103FE000D0B206B0F0BDC046A0320A4080330A40CD
:103FF000F0B581B0044616480568046015480068AD
:10400000214600F0AFFD0746134E314600F053FD48
:10401000002800D13E46114F3046394600F063FD7E
:10402000002800D137460B4807602046294600F09B
:104030008BFE05460A49204600F02EFE044609493B
:10404000284600F029FE214600F08CFD01B0F0BDAD
:1040500084022020800220200000FA430000FAC3DE
:1040600000002040CDCC4C3F90B0FFF739F800F075
:1040700003FBFFF741F9FEF763FBFEF7B7FA642095
:10408000FFF7B4FCFFF7EAFC00F0FEFA00F05AFB81
:10409000B14E37683068C01B40097D210D917C28E6
:1040A0001FD80D984501AD4C3068C01B0D99C90053
:1040B00000F0CCFB04210A1A2046A9A1FCF70AF95A
:1040C0000020082301462246FEF7ACFCFFF7DAFC8D
:1040D00000F04EFB6420FFF789FC3068C01BA8424B
:1040E000E2D33446FEF782FAA14D00272F70FFF786
:1040F000E9FCFFF7FFFD9F4800689F4908600D98A5
:10410000C0000790A84E0A9700F032FB01E000F0D3
:1041100085FB00F005FB0028F9D19A48006821686A
:10412000081AC0087D281ED320689649086000F050
:1041300005FB04468E480578FFF776FCFCF7A8FCE3
:1041400006460F4690480068FCF7A2FC0096964E83
:1041500001970A9F029003918CA021467E4C2A462B
:10416000834D00F027FBFFF78DFC8E490878401C3B
:104170000870C0B20A2807D300200870FFF7BAFD04
:104180007C48006880490860FFF73AFE0D9030785F
:10419000002800D037700FA807800EA80780287865
:1041A000012816D000283946384648D10FA90EAA52
:1041B0000D98FFF7D9F9FFF737FC7C4900F086FC32
:1041C00000281ED10120287000F0A2F9FFF792FD0F
:1041D00013E0694801686C4800680FAA0EABFFF74E
:1041E000DFF96748006880050BD5FFF771F900F02B
:1041F0008FF9FFF77FFD002028705E4800685E4958
:10420000086000210FA8405E079B984203DD0FA8BD
:104210000380184605E0594A904202DA0FA802804E
:1042200010460EAA515E994203DD0EA90B80194675
:1042300005E0524A914202DA0EA90A80114600F0C6
:10424000F1F85B490868401C08600A287ED3002406
:10425000574804602E7800F071FA054600F06AFABB
:104260000090002E01D055A200E052A23B4E5A4FC2
:10427000304654A12B46FCF72DF808232046214652
:104280003246FEF7CFFB387800280AD03A787B8890
:10429000B888B97900900191304650A1FCF71AF81E
:1042A00005E0304652A10CC90CC01CC91CC000203E
:1042B0000B900121099108230C933246FEF7B2FBC3
:1042C000FFF7B2FB354606462F480068FCF7E0FBD7
:1042D00007460C463046FCF7DBFB02460B460097D0
:1042E000019428464749FBF7F5FF02210B982A461F
:1042F0000C9BFEF797FB224801680D98C2090892B3
:104300004206D20F8306DB0FC406E40F0607F60F42
:104310004707FF0F8905C90F009701960294039381
:104320000492089A05920691099A02408007C30FE9
:10433000284635A1FBF7CEFF03210B982A460C9B9C
:10434000FEF770FB044C0A4D0A9F174E0520FFF73D
:104350004DFB00F00DFADCE628032020900220201F
:10436000537461727420696E2025752073000000FB
:104370002403202080002020C002202018FCFFFF02
:1043800080130A40C8022020DC0020205A25752016
:104390005325642044252E31662059252E31660D83
:1043A0000A000000BC022020640220200080544447
:1043B000E000202047524159000000004759524F69
:1043C000000000002573205A3A25752F25752020FE
:1043D00020202020202000005C022020423A25647A
:1043E0002025642C25642063256420202000000003
:1043F000423A2D2D2D20202020202020202020205A
:1044000020202000D0570000256425642564256401
:10441000256425642564256420433A2564202020F2
:1044200020200000F0B583B002910746354C2046AD
:104430001038002F014600D42146002F224600DC10
:104440000A4680211160002F00DC20460125290347
:10445000016038B2C01339464140081A06B27D20C7
:104460000190C000864200DB064627480222314602
:10447000FEF738F829042548012F009103DB103896
:104480000160204605E00160002F204601D0204653
:104490001038A90301601C4831462A46FEF722F86D
:1044A0006F030299012903DB20461038076003E0FF
:1044B0002760002900D0103C0098206008B2C0138B
:1044C0004140081A06B20198C000864200DB064649
:1044D00000220D483146FEF705F802980B490128E5
:1044E00003DB08461038076003E00F60002800D0A7
:1044F0001039E8030860032203483146FDF7F2FF54
:1045000003B0F0BDA0120A4000008640A0320A406D
:10451000064800210160064801607B4801607B4835
:104520000160044801600448016070478002202057
:1045300084022020B002202088022020F0B585B01F
:1045400004930392009101904948812102910160F6
:10455000484C0225256025640126266125602660D9
:1045600005273846FFF746FA25613846FFF742FA35
:1045700026613846FFF73EFA01984700F8B2FEF789
:10458000FDFD00200190FDF7F1FF002806D1009805
:10459000FEF7F4FDFDF7EAFF002802D0019805B010
:1045A000F0BD05200090FFF725FA3148029901601F
:1045B000256025643046264604463061356030600B
:1045C0000098FFF717FA35610098FFF713FA346186
:1045D0000098FFF70FFA00942743F8B2FEF7CEFDDC
:1045E000FDF7C4FF00280198D9D104980028009A4B
:1045F0002F46039D22D11E4802990160376037641F
:10460000326137613260052420461546FFF7F2F922
:1046100037602046FFF7EEF9284605B0F0BD076089
:1046200025603046FFF7E6F9256127600498401EB3
:104630002A46039D6D1C00282646DCD004901446B3
:10464000FEF7CCFA0395287009480299016037609B
:104650003764346125463761344605263046FFF716
:10466000C9F9049801282046D9D020461030D6E751
:104670000880424090120A400120C0033A49086075
:104680003A4908607047C0460120800336490860F7
:10469000364908607047C046F0B581B004461A48F4
:1046A000016800910460194D2868214600F05AFA0B
:1046B0000746174E314600F0FEF9002800D13E466D
:1046C000144F3046394600F00EFA002800D1374624
:1046D0002F601149384600F0DFFA06460F492046A0
:1046E00000F0DAFA314600F03DFA0646204600991D
:1046F00000F02AFB3F21090600F0CEFA314600F017
:1047000031FA01B0F0BDC046B8022020B40220202A
:104710000000AF430000AFC3CDCC4C3D0000C04013
:104720004748008847490988081A00D2403080B2BB
:104730007047C0461E4800687047C046364800684B
:104740007047C0460120C003074908600749086058
:104750003B48002101803B4801802F4801601448FC
:10476000016012480170704780E200E000E100E063
:1047700070B50D4800780D490A78904213D0087042
:1047800030490A88531C3F2423402D4D2E88B342C4
:1047900002D1961C26402E802B4CA0540B8004483E
:1047A0000168491C016070BD30032020C402202034
:1047B0001C03202083B0B0B5A1B0044625A80EC0CC
:1047C00025AB009301AD802128462246FBF764FD0E
:1047D0002878002819D001AC0E490F4A07E08861FB
:1047E0001068401C10605C1C587800280DD02346CF
:1047F0000C68E407F3D00C68E407F0D00C68E40719
:10480000EDD00C68E407F3D1E9E721B0B0BC01BCFE
:1048100003B00047089110402C0320200849088865
:10482000084A1288121A00D24032120406D0421CE2
:104830003F2313400B800449085C704700207047F9
:104840001A032020D6022020D902202043088B42C0
:104850001AD3002203098B4279D3030A8B425ED319
:10486000030B8B4242D3030C8B4227D30902FF2256
:1048700012BA030C8B4202D31212090203D0030BAB
:104880008B4233D31AE0D3E0411A8041401C704779
:1048900003460B4371D443088B42F5D3002203092E
:1048A0008B4254D3030A8B4239D3030B8B421DD363
:1048B000030C8B4202D394466EE0090AC30B8B4271
:1048C00001D3CB03C01A5241830B8B4201D38B031C
:1048D000C01A5241430B8B4201D34B03C01A5241C1
:1048E000030B8B4201D30B03C01A5241C30A8B4204
:1048F00001D3CB02C01A5241830A8B4201D38B02EF
:10490000C01A5241430A8B4201D34B02C01A524192
:10491000030A8B4201D30B02C01A5241CDD2C30904
:104920008B4201D3CB01C01A524183098B4201D380
:104930008B01C01A524143098B4201D34B01C01A6B
:10494000524103098B4201D30B01C01A5241C308E3
:104950008B4201D3CB00C01A524183088B4201D352
:104960008B00C01A524143088B4201D34B00C01A3E
:104970005241411A524110007047CA0F00D04942BB
:10498000031000D34042534000229C4603098B424F
:104990002DD3030A8B4212D38901FC2212BA030AD7
:1049A0008B420CD3890192118B4208D38901921159
:1049B0008B4204D3890137D0921100E08909C309E1
:1049C0008B4201D3CB01C01A524183098B4201D3E0
:1049D0008B01C01A524143098B4201D34B01C01ACB
:1049E000524103098B4201D30B01C01A5241C30843
:1049F0008B4201D3CB00C01A524183088B4201D3B2
:104A00008B00C01A5241D9D243088B4201D34B00CC
:104A1000C01A5241411A00D2014652411046634623
:104A20005B1000D34042704763465B1000D34042A6
:104A300001B50021004201D0C9430846C046C04626
:104A400002BDF8B5040C8BB2264682B25E43104616
:104A500058430D0C370C3604002180191646794155
:104A60006E43370C36048019264679416E43891906
:104A7000F8BD00004900CA020243100000D0042023
:104A80004A0D01D001221043044A490D914201D13F
:104A900002210843012800D105207047FF070000CC
:104AA00010B500F0A5F8EFF30080800001D50120DB
:104AB00010BD002010BD10B500F09AF8EFF3008093
:104AC0004000800F012800D0002010BD10B500F07C
:104AD000B9F8EFF300804000800F012801D00120D9
:104AE00010BD002010BD10B500F0ACF8EFF3008051
:104AF000800001D4012010BD002010BD30380A28EC
:104B000001D20120704700207047000010B5002935
:104B10000AD00878002807D005487844FDF7BEFA87
:104B2000002801D0002010BD0248784410BD0000CC
:104B3000EE0C0000E60C000010B500290AD0087841
:104B4000002807D005487844FDF7A8FA002801D0CE
:104B5000002010BD0248784410BD0000DE0C0000AB
:104B6000D60C000070B50125ED0704004C4020D4A0
:104B7000441A01D2001B0919C60D4B00F2B2FF2ADC
:104B800029D01B0E2CD000020C0228432C43D31A30
:104B9000DC40051910D2280A02D3401C6D0611D042
:104BA000761EF6058019FF2A00DA70BDC00DC0051B
:104BB00070BD694000F0CEF801200543C541521C8C
:104BC000761CE8E764089C40C90161408900E7D190
:104BD0000124A043E4E71B0E440200D0034870BD4B
:104BE000002AFCD1C00FC00770BD00BF0000C07F0D
:104BF0000123DB0502000A430DD4DA4203D49A42B2
:104C000007D488427047D84214D4D94212D488427B
:104C1000704780427047DA4203D59A42F9D5814203
:104C200070475B004200DA4204D24A00DA4201D205
:104C30008142704710B5024AFDF7CAF910BD00BFA6
:104C4000090013040123DB0502000A430DD4DA42F4
:104C500003D49A4207D488427047D84214D4D94228
:104C600012D48842704780427047DA4203D59A4294
:104C7000F9D5814270475B004200DA4204D24A0013
:104C8000DA4201D28142704710B5024AFDF7A0F91D
:104C900010BD00BF0900160470B5420064414B000E
:104CA0005C41120E39D01B0E38D0FF2A3CD0FF2BAE
:104CB0003AD0D2187F3A40024902400A490A4518C0
:104CC000ED0106004E43000A090A48430104731A25
:104CD0004019190C4318990F04D05B0801214907AA
:104CE0005B1A521CD80904D3401CF50301D19D0660
:104CF00007D0FF2A08D2D50506D0E4072043401983
:104D000070BD0125A843F4E7002A01DCE00770BD6F
:104D10002402FF202043C00570BD1B0EFF2A03D0D4
:104D2000FF2B01D0E00770BDFF2636064500B542D7
:104D300006D84D00B54203D8D218FF2A00D0E7E7C5
:104D4000004870BD0000C07F70B50125ED0704006C
:104D50004C4022D4441A02D26C40001B0919C60DE3
:104D60004B00F2B2FF2A4BD01B0E50D000020C02B7
:104D7000A8432C43D31ADC40051B05D5AD0019D33D
:104D80006D08761E521E37D0F605280A01D280190A
:104D900070BD70416D0603D070BD6940FFF7E8FE3D
:104DA0009C4009026140490001D0401E70BD0124B1
:104DB000A04370BD6D081DD001202B0C01D12D0426
:104DC00010302B0E01D12D0208302B0F01D12D01F7
:104DD000001DAB0F01D1AD00801CEB0F01D16D00A8
:104DE000401C361A121A6D00680AF5054019012A8E
:104DF00002DB70BD002070BDC036300AC00770BD38
:104E00001B0E440201D1FF2B00D1024870BD002AC5
:104E1000F0D070BD0000C07F03B4024878448446DF
:104E200003BC6047B5C1FFFF03B402487844844621
:104E300003BC604775C7FFFF0400000800000000C6
:104E400000000002000100001081828384858687B3
:104E500088898B8C8D8E8F919293959697999A9C39
:104E60009D9FA0A2A3A5A7A8AAACAEB0B2B3B5B7A8
:104E7000B9BCBEC0C2C5C7C9CCCED1D4D7D9DCDF7E
:104E8000E2E6E9ECF0F3F7FAFE00000000000000B3
:104E90000000000030313233343536373839414282
:104EA000434445464030580030313233343536378C
:104EB000383961626364656640307800303132337E
:104EC000343536373839616263646566787000302E
:104ED0003132333435363738394142434445465808
:104EE0005000000002400000000000A00000000090
:104EF00005400000000000C8000000000C40000059
:104F00000000409C00000000194000000020BCBED2
:104F10000000000034400000BFC91B8E00000004E8
:104F2000B5400000504BCFD06607E2CF0100000033
:104F30006C4100003E8251AADFEEA7340100000060
:104F4000D9420000DCB5A0E23A301F97FFFFFFFF17
:104F5000B4450000FD25A0C8E9A3C14FFFFFFFFF36
:104F6000FF3F00000000008000000000FF3F000045
:104F700000000080000000000000000000000000B1
:104F8000002F000000000700070000147F147F14AA
:104F900000242A7F2A120062640813230036495530
:104FA000225000000503000000001C224100000008
:104FB00041221C000014083E08140008083E08089E
:104FC000000000A0600000080808080800006060F9
:104FD0000000002010080402003E5149453E000038
:104FE000427F4000004261514946002141454B311A
:104FF000001814127F10002745454539003C4A49E6
:105000004930000171090503003649494936000657
:105010004949291E000036360000000056360000BF
:10502000000814224100001414141414000041223A
:10503000140800020151090600324959513E007C12
:105040001211127C007F49494936003E41414122FC
:10505000007F4141221C007F49494941007F0909E5
:105060000901003E4149497A007F0808087F000095
:10507000417F4100002040413F01007F0814224150
:10508000007F40404040007F020C027F007F040808
:10509000107F003E4141413E007F09090906003E64
:1050A0004151215E007F091929460046494949318D
:1050B0000001017F0101003F4040403F001F2040B0
:1050C000201F003F4038403F00631408146300076E
:1050D0000870080700615149454300007F414100C5
:1050E00000552A552A55000041417F000004020165
:1050F0000204004040404040000001020400002043
:1051000054545478007F4844443800384444442080
:1051100000384444487F00385454541800087E092D
:1051200001020018A4A4A47C007F080404780000F5
:10513000447D4000004080847D00007F10284400B2
:105140000000417F4000007C04180478007C0804C3
:10515000047800384444443800FC242424180018FF
:10516000242418FC007C08040408004854545420EB
:1051700000043F444020003C4040207C001C204074
:10518000201C003C4030403C004428102844001CB7
:10519000A0A0A07C004464544C44141414141414AF
:1051A00000000000000000000000000000000000FF
:1051B000000000F800000000000000333000000094
:1051C00000100C06100C060000000000000000009B
:1051D00040C07840C0784000043F04043F0404000D
:1051E000007088FC08300000001820FF211E00001D
:1051F000F008F000E018000000211C031E211E0032
:1052000000F00888700000001E21232419272110B7
:1052100010160E000000000000000000000000005A
:10522000000000E018040200000000071820400001
:1052300000020418E00000000040201807000000F1
:10524000404080F0804040000202010F0102020055
:10525000000000F0000000000101011F0101010039
:10526000000000000000000080B07000000000009E
:105270000000000000000000000101010101010127
:1052800000000000000000000030300000000000BE
:105290000000000080601804006018060100000093
:1052A00000E010080810E000000F102020100F0090
:1052B000001010F8000000000020203F2020000017
:1052C000007008080888700000302824222130006F
:1052D00000300888884830000018202020110E0077
:1052E0000000C02010F8000000070424243F240020
:1052F00000F80888880808000019212020110E00F5
:1053000000E0108888180000000F112020110E0006
:1053100000380808C83808000000003F00000000FE
:105320000070880808887000001C222121221C00BF
:1053300000E010080810E0000000312222110F00E8
:10534000000000C0C000000000000030300000007D
:1053500000000080000000000000806000000000ED
:105360000000804020100800000102040810200006
:105370004040404040404000040404040404040051
:1053800000081020408000000020100804020100E6
:10539000007048080808F0000000003036010000E6
:1053A000C030C828E810E0000718272423140B0099
:1053B0000000C038E0000000203C23020227382013
:1053C00008F8888888700000203F202020110E00F7
:1053D000C0300808080838000718202020100800EE
:1053E00008F808080810E000203F202020100F00D7
:1053F00008F88888E8081000203F202023201800A3
:1054000008F88888E8081000203F2000030000000A
:10541000C03008080838000007182020221E0200AB
:1054200008F808000008F808203F210101213F206A
:10543000000808F8080800000020203F2020000095
:1054400000000808F8080800C08080807F00000085
:1054500008F888C028180800203F200126382000BE
:1054600008F8080000000000203F20202020300025
:1054700008F8F800F8F80800203F003F003F20003F
:1054800008F830C00008F808203F200007183F0047
:10549000E01008080810E0000F10202020100F0076
:1054A00008F808080808F000203F21010101000069
:1054B000E01008080810E0000F18242438504F00AE
:1054C00008F8888888887000203F2000030C30206E
:1054D00000708808080838000038202121221C00AC
:1054E000180808F8080818000000203F20000000F5
:1054F00008F808000008F808001F202020201F00DE
:105500000878880000C83808000007380E0100003D
:10551000F80800F80008F800033C0700073C030007
:10552000081868808068180820302C03032C30206D
:105530000838C800C83808000000203F20000000DC
:1055400010080808C8380800203826212020180034
:10555000000000FE020202000000007F4040400008
:10556000000C30C000000000000000010638C00040
:1055700000020202FE000000004040407F000000E8
:10558000000004020202040000000000000000000D
:10559000000000000000000080808080808080800B
:1055A00000020204000000000000000000000000F3
:1055B00000008080808000000019242222223F20E9
:1055C00008F8008080000000003F112020110E002C
:1055D0000000008080800000000E112020201100BB
:1055E000000000808088F800000E112020103F206D
:1055F0000000808080800000001F222222221300F1
:10560000008080F0888888180020203F202000003B
:105610000000808080808000006B949494936000F0
:1056200008F8008080800000203F210000203F20FB
:1056300000809898000000000020203F20200000FB
:10564000000000809898000000C08080807F0000EB
:1056500008F8000080808000203F24022D302000C8
:10566000000808F8000000000020203F2020000073
:105670008080808080808000203F20003F20003F8D
:105680008080008080800000203F210000203F209B
:105690000000808080800000001F202020201F004C
:1056A000808000808000000080FFA12020110E007B
:1056B0000000008080808000000E112020A0FF806C
:1056C000808080008080800020203F212000010019
:1056D000000080808080800000332424242419006E
:1056E000008080E0808000000000001F202000007B
:1056F0008080000000808000001F202020103F20BC
:10570000808080000080808000010E30080601004B
:1057100080800080008080800F300C030C300F00F0
:1057200000808000808080000020312E0E3120001B
:10573000808080000080808080818E70180601004B
:1057400000808080808080000021302C2221300069
:1057500000000000807C020200000000003F40408A
:1057600000000000FF00000000000000FF0000003B
:105770000002027C800000000040403F000000006A
:105780000006010102020404000000000000000005
:105790000800080700000000E803000020010100E5
:1057A00008076300020000009F0F000001000000D6
:1057B00000000000000000000400000018000000CD
:1057C0000030000008000000180000000030000059
:1057D000443A252E306620593A252E316620202065
:1057E000202020200052656164204572726F720D86
:1057F00000000000000000003459000000002020DC
:1058000038050000280100001C00000043000000D3
:10581000F8FFFFFF0C0000000E0000000F0000006A
:105820002E0000001001000043000000F8FFFFFF01
:1058300000404040404040404040414141414140A3
:105840004040404040404040404040404040404058
:1058500040050202020202020202020202020202E7
:1058600002202020202020202020200202020202EC
:105870000202909090909090101010101010101044
:105880001010101010101010101010100202020250
:105890000202888888888888080808080808080894
:1058A0000808080808080808080808080202020290
:1058B00040000000000000000000000000000000A8
:1058C00000000000000000000000000000000000D8
:1058D00000000000000000000000000000000000C8
:1058E00000000000000000000000000000000000B8
:1058F00000000000000000000000000000000000A8
:105900000000000000000000000000000000000097
:105910000000000000000000000000000000000087
:105920000000000000000000000000000000000077
:045930000000000073
:04000005000000C136
:00000001FF
