:020000040000FA
:1000000080042020C1010000C5010000C7010000DC
:1000100000000000000000000000000000000000E0
:10002000000000000000000000000000C901000006
:100030000000000000000000CB010000912500003E
:10004000CF010000CF010000CF010000CF01000070
:10005000CF010000CF010000CF010000CF01000060
:1000600000000000CF010000CF01000000000000F0
:1000700000000000CF01000025260000E52500005B
:10008000CF010000CF010000CF0100009D2500003E
:10009000CF010000CF0100000000000000000000C0
:1000A000CF010000CF0100000000000000000000B0
:1000B000CF01000000000000CF010000CF010000D0
:1000C00000F002F800F06CF812A030C808382418CC
:1000D0002D18AC4201D100F063F80FCCA246AB461C
:1000E0000CA730CF2D1B083F3F197C427F1E544484
:1000F0002D090426F441641EAC4201D300F050F8EF
:100100000126334200D0FB1A3343984754465D46DC
:10011000DFE700003C4400005C44000000000000F9
:10012000103A02D378C878C1FAD8520701D330C840
:1001300030C101D504680C60704700000000000069
:100140007047000000000000002300240025002666
:10015000103A01D378C1FBD8520700D330C100D583
:100160000B60704710B5662902D103F027FD10BD62
:10017000642902D100F086F810BD632902D100F095
:1001800038FE10BD002010BD1FB500F053FE040066
:100190000020002103F0A2FBE0601FBD10B510BDE0
:1001A00001F030FA1146FFF7EFFF02F065FC01F0B5
:1001B00048FA03B4FFF7F2FF03BC02F08FFA000025
:1001C00006480047FEE7FEE7FEE7FEE7FEE7FEE73C
:1001D00003480449044A054B70470000C100000071
:1001E0008002202080042020800320208003202003
:1001F0000FB41CB50C0007AA009007D04142A142E1
:1002000002D30019401E01E00020C043074B7B448D
:1002100069460190069800F0C6FD0021002C01D02F
:10022000009A11701CBC08BC04B01847BB0B00003E
:1002300070B50C460546012A05D02878800600D501
:10024000EA69002302E0012305E05B1C934202D22D
:10025000E05C0028F9D1A869E618C01AA861286AEC
:10026000C01828622846C046C04604E06A68207864
:10027000A968641C9047B442F8D32846C046C046DB
:1002800070BD0000F7B5002575291068009914A607
:1002900011D0C046C046002802DA404211A608E04C
:1002A000009909688A0701D50FA602E0490704D51D
:1002B0000EA6012501E0C046C046009F0024243759
:1002C00004E000F0A2FD30313955641C0028F8D15B
:1002D0002B4632462146009800F0FDFAFEBD000094
:1002E000000000002D0000002B0000002000000096
:1002F000F3B50446002081B020622046E1688847BB
:10030000002872D0252802D06268A168ABE0594F5E
:1003100000267F442046E16888472028054608DB00
:10032000312D06D2781920380078002801D00643F4
:10033000F0E7B00701D5042086430020E0610746BE
:10034000A0612A2D0AD0284603F0C0FA002827D041
:10035000B8000019303D0090856119E00298BA009C
:10036000121902C8916102902046E1688847012F66
:10037000054617D1E06900281FDA202086431CE0DB
:1003800000980A21806948430099401930388861F3
:100390002046E1688847054603F098FA0028EFD127
:1003A000012F0AD02E2D08D12046E1688847054646
:1003B000202006437F1C022FC3DBA069002803DA3C
:1003C0004042A06101200643F00701D0102086437F
:1003D0006C2D0BD0682D09D04C2D3CD06A2D38D017
:1003E000742D38D07A2D36D016E040E0E1682F46E3
:1003F00020468847B842054609D16C2F29D00120F4
:100400008002E168064320468847054604E06C2FD9
:100410001DD0FF2001300643002D28D0284641384A
:10042000192803D80120C002064320352046266043
:100430002946029A1646FFF795FE002810D001289B
:100440000BD0F61DF008C0000830029055E74020A0
:10045000E1E78020D5E70020D3E7361D02964CE780
:1004600062682846A1689047206A401C44E7206AD9
:10047000FEBD0000B6380000002203098B4273D392
:10048000030A8B4258D3030B8B423CD3030C8B42A1
:1004900021D312E003460B437FD4002243088B4252
:1004A00074D303098B425FD3030A8B4244D3030BFB
:1004B0008B4228D3030C8B420DD30902FF2212BAC0
:1004C000030C8B4202D31212090265D0030B8B423C
:1004D00019D300E0090AC30B8B4201D3CB03C01A26
:1004E0005241830B8B4201D38B03C01A5241430B01
:1004F0008B4201D34B03C01A5241030B8B4201D3F1
:100500000B03C01A5241C30A8B4201D3CB02C01A5B
:100510005241830A8B4201D38B02C01A5241430AD3
:100520008B4201D34B02C01A5241030A8B4201D3C2
:100530000B02C01A5241CDD2C3098B4201D3CB0169
:10054000C01A524183098B4201D38B01C01A524118
:1005500043098B4201D34B01C01A524103098B421C
:1005600001D30B01C01A5241C3088B4201D3CB0007
:10057000C01A524183088B4201D38B00C01A5241EA
:1005800043088B4201D34B00C01A5241411A00D29A
:1005900001465241104670475DE0CA0F00D0494203
:1005A000031000D3404253409C46002203098B4273
:1005B0002DD3030A8B4212D38901FC2212BA030AFB
:1005C0008B420CD3890192118B4208D3890192117D
:1005D0008B4204D389013AD0921100E08909C30902
:1005E0008B4201D3CB01C01A524183098B4201D304
:1005F0008B01C01A524143098B4201D34B01C01AEF
:10060000524103098B4201D30B01C01A5241C30866
:100610008B4201D3CB00C01A524183088B4201D3D5
:100620008B00C01A5241D9D243088B4201D34B00F0
:10063000C01A5241411A00D2014652411046634647
:100640005B1001D34042002B00D5494270476346FE
:100650005B1000D3404201B50449002802DC491C6C
:10066000084000E00846C046C04602BDFFFFFF7FCD
:1006700070477047704700000121C90501234118E8
:1006800042001B06D3185B0E0AD0C1100722D20607
:10069000891840075242D14201D55200891870474B
:1006A000090208D50146002A03D0C10FC90700205E
:1006B000704710467047420202D00020024970473E
:1006C000072109050143F4E70000F87FF0B5FF2595
:1006D0002D04C609C209FF2704462E400137CB0965
:1006E0003E4348402A402B400746002A6BD0002B4F
:1006F00069D0AA4267D0AB4265D0002800DA324602
:100700000125ED0529432C4309022002090AD21ACA
:100710004B0C7F24E31A434C000A7C44E35C7D24A9
:100720002404121914145B00A218884201D3521C2D
:1007300000E0400049420C465C4324115C43DB016D
:100740006415E318040A5C43C502200D0C464443BB
:100750006419250A5D432303EC0C0D466543000331
:100760000019EB184C42A34201D35B18401CD4057E
:100770002018002B07D05B00C91804D3401C0029A7
:1007800001D1400840003F2189048A4209D3002A50
:1007900008DC1106090F04D0032149074018C00FD7
:1007A000C007F0BD01224100120689187F225206BF
:1007B0009142F6D205214907C84201D59010F0BDFB
:1007C000FF20C005F0BD002F00DA32461648AA42CD
:1007D00007D2AB4205D21902090E17D0F80FC00795
:1007E000F0BDFF2563002D06AB42F9D84900A942B0
:1007F000F6D8AB4201D1A942F2D0A94201D10021E1
:1008000001E061004908D0050843F0BD1102090E5E
:10081000FBD0FF200243D005F0BD0A46014610463A
:1008200054E70000BF3400000000C07F10B501464F
:100830009E240002CA15A307002A02D01843002AEA
:1008400004DBA21A002A0CDDD04010BD1206120EE5
:1008500001D140004008A21A03D4D04040420028F1
:10086000F3DDFF2248001206904201D9002010BD9E
:10087000C817C043584010BD1F22030C02D10F22DD
:1008800000041CD0030E01D10002083A030F01D16D
:100890000001121F830F01D18000921E002801DB8E
:1008A0004000521ED20551180212511819229040D0
:1008B00004D3491C002801D1490849000846704763
:1008C000C10FC90700D04042012292071143D3E76C
:1008D00001218907D0E7FFB504460D4681B02430D9
:1008E00000902168880604D51022E06991432160B8
:1008F00000E00120A84201DD471B00E0002704982A
:10090000A1697A191018081AA0612078C00602D4CB
:100910002046C046C046002608E003986268A168E9
:10092000805D9047206A401C761C206204988642B5
:10093000F3DB2078C0060AD52046C046C04606E054
:100940006268A16830209047206A401C20623846C7
:100950007F1E0028F4DC07E000986268A168405D13
:100960009047206A401C206228466D1E0028F3DC58
:100970002046C046C0462078000602D5022005B0B9
:10098000F0BD0120FBE70000FFB50C461E468FB00E
:1009900003CA089009914F007D0D00D16D1E002102
:1009A00008460020C0460321099A89050840002A0C
:1009B00003DA8200801840080840800D01280A9060
:1009C00002DD0020C0430A90089807430DD0F0488C
:1009D000F049281848430714189800281DD075427C
:1009E000291E1DDD0A9842421BE01898012802D0FA
:1009F0000020302104E00020F24305E02154401C97
:100A0000B042FBDB30460022189B002121540F9995
:100A10008B600A60486013B0F0BDBD1B6D1CDFE742
:100A20000A9A002900DA69420BA800F089FA0BAB98
:100A300007CB03AB07C30899099800F0EDFA6B46A2
:100A400007C30146D4480918002D00910BDDD24997
:100A500003980A9A49424018002303A90390684664
:100A600000F04AFD08E003990A9A0023081803A938
:100A70000390684600F0EAFC6B4607C30004000CD4
:100A800003D00020C043410800E01046189A002A15
:100A900003D00022009215461EE0751E05D400F01A
:100AA000CDF9303262556D1EF9D501220843079603
:100AB00002D000227F1C04E02078302801D10022DF
:100AC0007F1E002A069787D01EE0112D07DA00F05E
:100AD000B5F9303262556D1C02460A43F5D1084320
:100AE00003D00098002819D00EE00021681E05E010
:100AF000235C625C63542254401E491C8142F7DB34
:100B0000A81B401E07950690079A18990020A0542C
:100B10000F98079B069A81600CC07CE71126002085
:100B2000189059E7D21DF0B50D460446D10893B090
:100B3000C90003C90C900D9102F084FE02460D9885
:100B4000C00F01D02D2007E02068810701D52B20A0
:100B500002E04007C00F4001032A0F9001D0072A8E
:100B600005DB03462946204600F0A6F90EE1207871
:100B7000800601D5E76900E006272846652D04D0E8
:100B8000662814D0672D69D12DE00020112F009028
:100B900001DB112300E07B1C0CAA03A910A8FFF7BE
:100BA000F3FE1199002610987D1C0E9142E0012061
:100BB0003B460CAAC0070B900120009003A910A887
:100BC000FFF7E2FE119D12981099002600280E955D
:100BD00001D1781C0D18781B02D446427D1C761E6C
:100BE000E81B00903AE0012F00DA01270020112FC6
:100BF000009001DD112300E03B460CAA03A910A8D8
:100C0000FFF7C2FE11993D46109800260E912178FB
:100C100009070BD40E99A94200DA0D4603A9012D4C
:100C200004DD4A19203AD27F302A06D0B84201DAD0
:100C3000011D04DA012100910FE06D1EEFE700288D
:100C400002DC86192D1A03E0411CA94200DD0D4685
:100C5000801B401C00900120C0070B9020780007EB
:100C600005D40098A84202DB0020C04300906946EA
:100C70000020C8720B98012102AF0337C9078842D0
:100C800025D0022010902B2011900B9800280BDA11
:100C900040420B902D20119006E00B9800F0B5F823
:100CA00030317F1E0B9039701099481E002910902A
:100CB000F3DC0B980028F0D111987F1E3870208843
:100CC000000501D5452000E065207F1E387001A891
:100CD000C01BC01D0B900F98002800D001204119A7
:100CE0000098C01709180B980818A169081A401E27
:100CF000A0612078C00602D42046C046C0460F98A6
:100D0000002805D06268A1689047206A401C2062D4
:100D10002078C00625D52046C046C04621E0002EDA
:100D200007DB0E98B04204DD03A86268805DA1680D
:100D300002E06268A16830209047206A761C401C5F
:100D400020620098401E002800900AD100F072F83E
:100D5000C06862680168405CA1689047206A401CD6
:100D6000206228466D1E0028D9DC07E062683878CA
:100D7000A1687F1C9047206A401C20620B99481E86
:100D800000290B90F2DC2046C046C046032042E614
:100D900001FCFFFF104D0000E1DFFFFF01694A1C6D
:100DA00002610878704700B58FB00291002105916B
:100DB0000549019379440391114604906846FFF771
:100DC00097FA0FB000BD0000E5FFFFFF0CC908391E
:100DD0009A4202D2531C0B601070704710B54369E1
:100DE000002B02D0C046C04601E0FFF721FA0120E7
:100DF00010BD1278014624310A7000224A70012287
:100E0000ECE711680022D243E8E701468008081A9F
:100E100002091018020A1018020C1018C0088200EB
:100E200012185200891A01E0401C0A390A29FBD223
:100E30007047000000487047300020200B4670B516
:100E4000024689078008084319469D08141AA941DB
:100E500025090807054308092C194841250A0106F8
:100E60000D43010A2C194141200C0D0428430D0C9F
:100E700000194D41002140194D41C0086907084340
:100E8000E908840F8D002543840024184D4124195E
:100E90006D41121BAB4107E00925ED432C1152199E
:100EA00063410024401C61411C460A250026551B55
:100EB000B441F1D270BD0000F8B51F4604460123CD
:100EC0000068DB02032601461840072A05DB0028DC
:100ED00001D017A506E017A504E0002801D016A54B
:100EE00000E016A5102081432160A069C01E002FDC
:100EF000A06101D0401EA0612046C046C046002F20
:100F000009D038466268A1689047206A401C206278
:100F1000C01C206206E0206AFAE762682878A168AF
:100F20006D1C9047761EF8D22046C046C046F8BDDC
:100F30004E414E006E616E00494E4600696E66007D
:100F4000F7B516468AB0334878446C4603467C337E
:100F5000C06F5A689B680DC42E487844763003AC45
:100F60000DC80DC43720C001081837211B30FFF70A
:100F700091FA05460C46803D1B3C02D56442012097
:100F800000E000200027099010E0E0070CD00C20C2
:100F900020497843794432464C3941186846012348
:100FA00000F054FA6B4607C364107F1C002CECD190
:100FB000184F7F442E3F16E0E80712D02001C019D9
:100FC0000EC80691089307920068F04201D1981963
:100FD00008903246012306A903A800F037FA03ABB4
:100FE00007C36D10641C002DE6D10998002806D0B7
:100FF00032466946012303A800F07EFA05E001238A
:101000003246694603A800F021FA0A9B07C30DB0D7
:10101000F0BD0000D42C0000034640000A4610B585
:10102000400D0BD00121C9070F24A40200191C0395
:1010300064082143540D2143D20207E0002101201E
:10104000F2E7D40F490021435200401E0029F8DA8C
:10105000DB0FDB07184310BDFFB50D46144685B006
:101060004868516802F0D6FB00910190A868A16819
:1010700002F0D0FB02910390A868616802F0CAFBFD
:10108000029A12188242029201D2012000E000204E
:10109000019A0B18D2180028019202D08A4202D974
:1010A00003E08A4201D2012000E0002000990818E4
:1010B00000906868A16802F0ADFB029A12188242A3
:1010C000029201D2012000E00020019A0B18D218F0
:1010D0000028019202D08A4202D903E08A4201D25A
:1010E000012000E00020009908180090286821687D
:1010F00040004900400849084018FA49471814E0E0
:1011000001994000C90F08430090019802994000DE
:10111000C90F08430190029803994000C90F084382
:101120000290039840007F1E039000980028E7DAA1
:101130000898002801D0EC4E00E00026B74201DA02
:10114000012000E00020002804902AD0F71BF806B8
:10115000C00E15D0029B2021091A039A8B401A4316
:101160000392029A019BC2408B401A430292019A59
:10117000009BC2408B4000991A430192C1400091EC
:101180007B110DD06F460320C11A03D500218200C8
:10119000B95003E08A008100BA587A50401EF3D556
:1011A000374603980299002800D00120014308988F
:1011B0000291002808460CD0002800D00120019997
:1011C000019A490508430121D20AC902D2020192BB
:1011D00000E001210E9B0122D207012B02D0002B3F
:1011E00003D013E0002807D120E0904204D89042B9
:1011F0000CD1019B0B4209D0019B5918019105D1DB
:101200000099491C009101D17F1C009200280DD04B
:10121000102108460020C0460498002806D00F98E8
:10122000002803D0082108460020C046286821680D
:10123000019B009A4840C10F0598C90739430EC069
:1012400009B0F0BDFFB587B0099A089808995368AE
:101250009268406889689646002203931746944630
:10126000089A12685300099A5B08126852005208E3
:101270009A1A9E4BD4180A9A002A01D0352200E00F
:10128000402206920022012315460492DB070593B3
:1012900024E0002D05D175460346039E4D1BB34146
:1012A00009D375466646039B491B049D9841059BDF
:1012B0007519AC465F4163463B4308D0059B049ECD
:1012C000DD0776082E435B080496059301E0521E65
:1012D000641EC50FED0749184041521C069B9A42F7
:1012E000D7DB002D04D17546039A6B1A824101D2D7
:1012F00003200CE0039A0B466B404240134303D09B
:10130000014303D0012002E0022000E000206146FA
:1013100001910021009702910A99002905D06146A8
:1013200040020143704B019102E0800700230290CC
:101330009C4201DA012000E0002007003AD01A1B8D
:10134000D006C00E15D0029D2021019C091AC5406F
:101350008C402543029C8C4000D001242543019CF5
:101360000295009DC4408D4000992C430194C140DA
:10137000009154111DD06D460221002202290CD18A
:101380000320001B07E0002804DB8600AE59002E76
:1013900000D00122401C0328F5DB081B02D5880081
:1013A0002A5004E08000285810438A00A850491EA3
:1013B000E3D51C460A98002802980CD0002800D0DB
:1013C00001200199019A490508430121D20AC90265
:1013D000D202019200E00121109B0122D207012BD1
:1013E00002D0002B03D013E0002807D11FE0904269
:1013F00004D890420CD1019B0B4209D0019B591893
:10140000019105D10099491C009101D1641C009201
:1014100000280CD0102108460020C046002F06D01E
:101420001198002803D0082108460020C0460898DB
:101430000999019A009B006809684840C10F079804
:10144000C907214382600AC00BB0F0BD00B585B06A
:10145000019300920A460146002302A8FFF7FCFD13
:1014600002A807C805B000BDFFB50A461F4685B0F3
:101470000799019301230091014602A8FFF7ECFDB3
:1014800002990398049ECA0F4900D20700920F22C6
:10149000490892028C1A0021002800DB0C46450006
:1014A00013486D08844214D3079A002A04DA441EB4
:1014B0000026104DF64302E004460D460E4610216C
:1014C00008460020C046002F03D004210846002013
:1014D000C0462005E90A0843009908436905F20A55
:1014E0001143ADE602C0FFFF013C0000FF3F0000DA
:1014F000FF070000FFFFFF7F00B585B0019300925A
:101500000A460146002302A8FFF79CFE02A807C86E
:10151000A8E7FFB50A461F4685B007990193012346
:101520000091014602A8FFF78DFE02990398049EE0
:10153000CA0F4900D20700920F22490892028C1A62
:101540000021002800DB0C46450011486D0884424C
:1015500014D3079A002A04DA441E00260D4DF643E0
:1015600002E004460D460E46102108460020C04603
:10157000002F03D0042108460020C0462005E90AB8
:101580000843009908436905F20A114358E6000030
:10159000FF070000FFFFFF7F10B5FF231B0644007D
:1015A0009C421DD84C009C421AD80346124A0B4359
:1015B00007D4401A02D3EFF3008010BDEFF3008090
:1015C00010BD081A03D3EFF30080904305E0EFF35A
:1015D000008001219043C907084380F3008810BDB3
:1015E0000D231B041A4204D01146002000F08AF893
:1015F00010BD00F09FF810BD00000090004870473B
:10160000100020207546FFF7F9FFAE460500694639
:101610005346C008C000854618B020B5FEF7D8FD77
:1016200060BCB64600260027C0C5C0C5C0C5C0C541
:10163000C0C5C0C5C0C5C0C5403D490849008D46AC
:10164000704710B50446C046C0462046FEF7B1FDBF
:1016500010BD000082078B079A423FD170B5920FF0
:101660000AD0032402780B78401C491C002A33D08E
:101670009A4231D12042F5D1214EF40104C808C963
:10168000951B9543254018D19A420FD104C808C92B
:10169000951B9543254010D19A4207D104C808C92B
:1016A000951B9543254008D19A42E7D012BA1BBA40
:1016B00001209A4200D2404270BD12BA1BBA2DBA24
:1016C00018241000E0401900E140401A05D12E0016
:1016D000E64002D1083CF4D1D01A70BD02780B78F4
:1016E000401C491C002A09D09A4207D102780B7885
:1016F000401C491C002A01D09A42EFD0D01A7047F2
:1017000001010101C80212D54803400F002804D08E
:10171000C803C043012188407047EFF300800001F7
:10172000000903210907084380F30088704700205F
:101730007047000010B5024800F004F810BD00002A
:101740000000C07F10B50C461107090F092904D00D
:101750000A290AD008290CD104E011460820FFF715
:10176000D1FF06E0510606D501E0510601D5012062
:10177000C007214610BDD10607D501010909CC08D3
:101780004907000E0006044309E0410F2002490703
:10179000000A0143200E00061D22D14101430846E4
:1017A000E7E7811E091F00BFFCD27047F0B582B089
:1017B000002A31D091235B01C3180320801A0090C6
:1017C0000220C043801A019056420F2007020020D9
:1017D000DC693C4221D00C5C1C60019C2418241D57
:1017E0001ED0DC693C421DD00C1865781D60351890
:1017F000AD1C19D0DD693D4218D0A5781D60009D53
:101800002D1815D0DD693D4214D0E4781C60001D10
:101810003418DDD1104600E0002080B202B0F0BDE7
:101820001046FAE7401CF8E71046F6E7801CF4E79C
:101830001046F2E7C01CF0E770B50A780C231A4096
:101840000124240305196E689E43B2186A60497822
:1018500007221140035993435918015170BD0000EC
:10186000F0B57D4A82183B4BC31808794E793A4D42
:101870007B4C002E23D0202804D00526F60100281A
:1018800003D003E0354E002800D18826576F2F4043
:1018900037435767976F2F4037439767566B2640FC
:1018A0005663966B264096630026566596658F268E
:1018B000F6435F6837405F609F6837409F608E796E
:1018C000096820280BD0002819D1491E5160D76E15
:1018D0002F4088210F43D7661746703719E0491EFD
:1018E0005160D16E29401D4F3943D166116F294097
:1018F0003943116701214907194D174609E0490885
:101900005160D76E2F400521C9010F43D766174696
:1019100070373C682C400C433C60D16A504C2140ED
:10192000D162116B214011630021D16411658F21B7
:10193000C943D46F0C40D4671C680C401C6006433C
:10194000BD2030401168074B0B40C018801C106050
:10195000F0BDC0468418000024493E000104000088
:10196000FFFFFFCF4000FFCFB0B53B4A80184A6869
:1019700042600A78222A57D8930001A4E3589F4670
:101980001F1A0000291A00001F1A0000291A00005F
:10199000291A0000291A0000291A0000291A00003B
:1019A000291A0000291A0000291A0000291A00002B
:1019B000291A0000291A0000291A0000291A00001B
:1019C0000D1A0000291A00000D1A0000291A000043
:1019D000291A0000291A0000291A0000291A0000FB
:1019E000291A0000291A0000291A0000291A0000EB
:1019F000291A0000291A0000291A0000291A0000DB
:101A00000D1A0000291A00000D1A000003231B07FD
:101A100004689C4301235B07E318036004E003238D
:101A20001B0704689C4304600B69C360CB680B4CC4
:101A30001C40C36A0A4D1D402B19C3620368094C40
:101A40001C400460097A11433F221140036893430C
:101A500059180160B0BDC046041800007777020035
:101A60008888FDFF7F00FFFF10B507239B04194006
:101A700092008018024A84589C436118815010BD1E
:101A80003018000010B5029CA4000019114319433E
:101A9000014A815010BDC0465018000092008018C5
:101AA000014A81507047C0461018000010B501224D
:101AB000120383180C789C604B7883508978014A14
:101AC000815010BD0C110000B0B5112212028358D4
:101AD0000124A34383508B780C881C438B882343B9
:101AE000094C1C408358094D1D402B1983508B799C
:101AF000CC791C43097A21437E231940801842681F
:101B00009A4351184160B0BD18670000E798FDFF87
:101B100010B50122120383180C789C60497881501B
:101B200010BDB0B5B0200025294600F037FA284690
:101B3000294600F033FA1020294600F02FFA00243D
:101B40000121204600F02AFA681C45B2002DF6D586
:101B5000B120214600F022FA2046214600F01EFA6C
:101B60001020214600F01AFA00250121284600F035
:101B700015FA601C44B2002CF6D5B220294600F0BC
:101B80000DFA2846294600F009FA1020294600F0EF
:101B900005FA00240121204600F000FA681C45B235
:101BA000002DF6D5B320214600F0F8F92046214655
:101BB00000F0F4F91020214600F0F0F90025012191
:101BC000284600F0EBF9601C44B2002CF6D5B42096
:101BD000294600F0E3F92846294600F0DFF91020F5
:101BE000294600F0DBF900240121204600F0D6F957
:101BF000681C45B2002DF6D5B520214600F0CEF97F
:101C00002046214600F0CAF91020214600F0C6F90E
:101C100000250121284600F0C1F9601C44B2002CC7
:101C2000F6D5B620294600F0B9F92846294600F035
:101C3000B5F91020294600F0B1F900240121204611
:101C400000F0ACF9681C45B2002DF6D5B72021464E
:101C500000F0A4F92046214600F0A0F9102021460A
:101C600000F09CF90020012100F098F9601C44B2BA
:101C7000002CF7D5B0BD0000F0B581B07748006802
:101C800080075BD476487749016077498120C86036
:101C90007648801E08600868086001200090C5072B
:101CA000734E356035630022724F7348734B356055
:101CB0003C6804603C6801688C420BD13968046858
:101CC000A14207D139680468A14203D13968046888
:101CD000A142EFD0314610390D6039680160396892
:101CE0000468A1420BD139680468A14207D1396860
:101CF0000468A14203D139680468A142EFD0196891
:101D0000C90003D4511C632A0A46D0D3FA4AFB48BF
:101D10001060FB4BFB49196018681860D960D868DF
:101D2000D86000984006196801431960D9680143DA
:101D3000D960101FF749016000F07AFAE84802689C
:101D4000F2490A6002680B68D21AC72A0ED80268E4
:101D50000B68D21AC72A09D802680B68D21AC72A98
:101D600004D802680B68D21AC82AEBD3AE2000242C
:101D7000214600F013F92046214600F00FF910200B
:101D8000214600F00BF940263046214600F006F9C6
:101D90008120214600F002F9CF20214600F0FEF814
:101DA000A120214600F0FAF8C820214600F0F6F8FC
:101DB000A6252846214600F0F1F8A820214600F08B
:101DC000EDF83F20214600F0E9F8D320214600F04D
:101DD000E5F82046214600F0E1F8D520214600F044
:101DE000DDF88020214600F0D9F8D920214600F006
:101DF000D5F8F120214600F0D1F8DA20214600F094
:101E0000CDF81220214600F0C9F8DB20214600F071
:101E1000C5F83046214600F0C1F82020214600F0E8
:101E2000BDF80220214600F0B9F88D20214600F0CF
:101E3000B5F81420214600F0B1F8A420214600F0A6
:101E4000ADF82846214600F0A9F8FFF76AFEAF205A
:101E5000214600F0A3F801B0F0BDC04634120F4097
:101E600004080F40030000B10C80424083000C00C6
:101E7000A0120A40340220203002202080130A40A1
:101E8000F0B587B01C4600920E46049058080590A5
:101E9000082B02D10620069007E06007E108002821
:101EA00000D0491C05984143069130465038C0B2D5
:101EB0000025294600F072F8049F3809103003907D
:101EC000294600F06BF80F2038400290294600F0B8
:101ED00065F8069800283BD000982038C0B20090E2
:101EE00000011C49081804902F4601940EE00620BA
:101EF000009948431849081840190078012100F05A
:101F00004DF86D1C7F1C0698874221D22846059902
:101F1000FEF7B2FA082C15D0002913D130465038FC
:101F2000C0B234460026314600F038F803983146F6
:101F300000F034F8029831462646019C00F02EF855
:101F4000761C01E0082CD2D0102C01D10498D3E7E4
:101F500007B0F0BDDC3E0000B43C0000F0B583B03B
:101F60001578002D18D00746082B01D05E0800E038
:101F70000626002402920196F8B2EAB20E461D46E9
:101F8000FFF77EFF029A2B463146019EBF19641C63
:101F9000E0B2155C002DEFD103B0F0BDF0B583B019
:101FA00002AA5070481E8141880110704C4D2E6865
:101FB000B148022411462246FFF7F8FB49488461E4
:101FC00049490A68920608D40A68920605D40A6844
:101FD000920602D40A689206F3D50A1F08390B68E4
:101FE000424C1C4078340C601168414B0B40414915
:101FF000591811600A36016889076FD42968B142FF
:1020000011D20168890769D42968B1420BD20168ED
:10201000890763D42968B14205D2016889075DD474
:102020002968B142E7D334483449016078498120B6
:10203000C8603448801E086008680860012001906C
:10204000C607314F3E603E630020304A304B3E6051
:102050002C6814602C6811688C420BD129681468B4
:10206000A14207D129681468A14203D129681468E4
:10207000A142EFD0394610390E60296811602968F5
:102080001468A1420BD129681468A14207D12968BC
:102090001468A14203D129681468A142EFD01968DD
:1020A000C90003D4411C63280846D0D3124A134800
:1020B0001060574B1349196018681860D960D868C8
:1020C000D86001984006196801431960D968014336
:1020D000D960101F0F49016000F0AAF803B0F0BDED
:1020E0003402202030100F4018120F4000F8FFFF7C
:1020F000F8FF00F00700020004080F40030000B1E1
:102100000C80424083000C00A0120A4030022020C4
:1021100080130A4001000026F0B53D49872008677A
:102120000125AA033B4802608424CC656A02026050
:10213000394B1A46183A88261660EE03374A16605D
:102140009C62EC051460364CA61C0E600F680F6094
:10215000CE60CE68CE606D060E682E430E60CE68EF
:102160002E43CE6082258D642E4ECE64DD60DE620D
:102170000E46083E812535600E1F3560CD621E4635
:10218000243E35601E46203E35601E46143E3560B6
:102190001E46283E35601E461C3E3560CD664D67A6
:1021A0001C601E681E605C605E685E609C609E686D
:1021B0009E605C615E695E619C619E699E61DC619E
:1021C000DE69DE618C658E6D8E654D655C625D6A73
:1021D0005D621C631D6B1D635C635D6B5D631C64F2
:1021E0001D6C1D640C640B6C0B644C644B6C4B6479
:1021F000114630390C4B0B601146403903240C60FA
:10220000D91C116001463039084A0A600260F0BDED
:102210000C804240D0320A40AC804240D0120A408A
:1022200081000C00820004008070010080A0010089
:1022300080B511481149FFF7FFFA03204102104809
:1022400002680A43026001210A0203681343036023
:102250000022426107224262836B9343836312022E
:10226000836B93438363826A042313438362826A8A
:102270000A43826280BDC04600000F40CC4400008B
:1022800000120F40F0B583B0304C31492046FFF7C3
:102290000DFC30492046FFF7E3FA2F4801682F4A2A
:1022A0000A40026000250095204629462A462B4612
:1022B000FFF7E8FB204629462A46FFF7D5FB7D209D
:1022C000C600204631462A46FFF7E8FB0127009763
:1022D000204629462A462B46FFF7D4FB20462946AE
:1022E0003A460297FFF7C0FB2046314634463A464D
:1022F000FFF7D4FB02260096144F384629462A469B
:102300002B46FFF7BFFB384629463246FFF7ACFBAA
:10231000384621463246FFF7C1FB03260096384671
:1023200029462A462B46FFF7ADFB3846294632465A
:10233000FFF79AFB384621463246FFF7AFFB0848C5
:10234000029981600F21016003B0F0BD000086405A
:10235000CE440000D4440000041886407F00FFFFF4
:10236000001186400C48002101600320C1430B4846
:102370000246083A13680B4013600168012291433A
:102380000160110203688B4303601103001F0268A0
:102390000A4302607047C04608030B4008010B4027
:1023A000084809494160FF210906084A13688B4320
:1023B00003218907591811600021816007210160FC
:1023C0007047C04610E000E0FF7C000020ED00E018
:1023D00010B5084C08492046FFF768FB074920461E
:1023E000FFF7C2FA0648016801221143016005485F
:1023F000026010BD00208640DC440000E044000084
:10240000283086400831864010B5144C14492046C7
:10241000FFF77EFB13492046FFF756FB0321CA0353
:10242000114803689343036002692F4B13401A332A
:10243000036142690A433C218A43426141680122A7
:10244000114043689343591841609102074B1C683F
:102450000C431C6001681143016010BD00801040F6
:10246000F4440000F6440000009110402890104011
:1024700010B5194C19492046FFF74AFB1849204668
:10248000FFF722FB0320C103164802688A4302605B
:102490000169154A0A4011320261416917220A4353
:1024A00028218A434261426801210A4043688B43E4
:1024B0009A1842608A020D4B1C6814431C60FF226C
:1024C00012040B4B1C6894438A05A2181A60026818
:1024D0000A43026010BDC0460020104000450000C5
:1024E00002450000003110400000FFFF283010407E
:1024F0000CE400E080B500F01BF8FFF70DFEFFF7DD
:1025000031FFFFF7BFFEFFF763FFFFF791FEFFF715
:102510007BFFFFF7ADFFFFF743FFB8200249002222
:102520000A5402490A5480BD300120207400202042
:10253000F0B581B00D480E4941600E4A51600E4B16
:1025400059600E4C61600E4D69600E4E71600E4F09
:1025500079600E4901601160196021602960316065
:1025600039601020FFF71DF901B0F0BD00080A40E6
:10257000030000B100280A40000886400028864079
:1025800000080F400088104000281040010000267D
:1025900013480168491C01607047C04680B5054872
:1025A0000168C9B2012903D10121816200F018F943
:1025B00080BDC0462030864009490A680B689B1AD6
:1025C00083420BD20B689B1A834207D20B689B1A7B
:1025D000834203D20B689B1A8342EFD37047C046F5
:1025E0003402202010B50A480068C0B20B280ED172
:1025F0000848006808490A88531C3F221A40074BC4
:102600001B889A4203D00B88054CE0540A8010BD09
:102610002090104024911040780220207A0220203F
:1026200038022020F0B582B025480068C0B20B28DF
:1026300043D124480178244A1268D2B202290AD030
:10264000012931D1552A36D1204A02211170204A60
:102650005523537030E01D4B1C781D490A55621CF0
:102660001A70D2B2092A28D38B78CA7801920093C3
:102670005A400D796A404C7962408E797240CF7928
:102680007A400B7A00219A4216D1124A009B1370AD
:102690002B02019D5B19538033021B1993809771A4
:1026A0000D4A0123137007E0AA2A06D10849AA227D
:1026B0000A70012100E00021017002B0F0BDC046A7
:1026C000203010402D022020243110402C022020E8
:1026D00023022020EC012020F4012020704700007C
:1026E000F0B581B001460222024001230340584266
:1026F000FF242C34A043002A00D0C83804240C4006
:10270000009400D0823808250D4000D046381026AD
:102710000E4000D0463020270F4000D082304024A9
:102720000C4000D0C83052089A18009B9B08D21861
:10273000EB08D2183309D2187B09D218A309D5188F
:1027400049B2002912D4290614D113480468002183
:10275000204601F0B0F8002805D10021204601F004
:1027600092F8002814D10D4801B0F0BD4B2189002A
:1027700040186D1CFEF7A4F80446E8B2FEF7A8F86E
:1027800001462046FDF7A2FF0349086001B0F0BDF5
:10279000034801B0F0BDC046700020200000FAC31D
:1027A0000000FA4380B5FFF707FF80BD81B040010C
:1027B00000900098411E009100280ED00098411E04
:1027C0000091002809D00098411E0091002804D0F3
:1027D0000098411E00910028EBD101B07047000025
:1027E000F0B583B02048076820490A680292204A61
:1027F0001568006810601F4802680192096801604E
:1028000000241D48005FFEF75BF80646781BFEF7C4
:1028100057F81A4D294601F011F907461849304674
:1028200001F00CF9394601F06FF8FDF7FFFF12498E
:102830000880144F385FFEF743F806460298019966
:10284000401AFEF73DF8294601F0F8F804463046F4
:102850000B4901F0F3F8214601F056F8FDF7E6FFC9
:10286000388003B0F0BDC046F801202004022020CB
:10287000FC01202008022020000220209A99993E85
:102880003333333F0C022020F0B586B078498020E6
:1028900008600C46103C2060A0250595059A531E43
:1028A0000593002A0ED0059A531E0593002A09D0DD
:1028B000059A531E0593002A04D0059A531E0593CA
:1028C000002AEBD108606B4A1368049320600595D9
:1028D000059B5E1E0596002B0ED0059B5E1E059681
:1028E000002B09D0059B5E1E0596002B04D0059B8E
:1028F0005E1E0596002BEBD10860136803932060E1
:102900000595059B5E1E0596002B0ED0059B5E1E51
:102910000596002B09D0059B5E1E0596002B04D062
:10292000059B5E1E0596002BEBD108601368029391
:1029300020600595059B5E1E0596002B0ED0059B1D
:102940005E1E0596002B09D0059B5E1E0596002B8A
:1029500004D0059B5E1E0596002BEBD10860136822
:10296000019320600595059B5E1E0596002B0ED0F9
:10297000059B5E1E0596002B09D0059B5E1E0596E5
:10298000002B04D0059B5E1E0596002BEBD1086042
:102990001368009320600595059B5F1E0597002B2B
:1029A0000ED0059B5F1E0597002B09D0059B5F1E6F
:1029B0000597002B04D0059B5F1E0597002BEBD1DC
:1029C0000860176820600595059B5E1E0596002B24
:1029D0000ED0059B5E1E0596002B09D0059B5E1E42
:1029E0000596002B04D0059B5E1E0596002BEBD1AF
:1029F0000860136820600595059C651E0595002CF0
:102A00000ED0059C651E0595002C09D0059C651E01
:102A10000595002C04D0059C651E0595002CEBD176
:102A200008600299890904240C400399C909022508
:102A30000D400499C905C90F69186118019C640902
:102A4000082525406918009C24091025254069188F
:102A5000FC082025254069189B0840241C4061186B
:102A60001268520802400A43D0B206B0F0BDC04618
:102A7000A0320A4080330A4000B5A3B0FFF73AFD08
:102A800000F03EFE002018A91422159000F05CFE14
:102A9000D0491C9888420BD1CF4818990160CF4883
:102AA00019990160CE481A990160CE481B990160BE
:102AB000CD48CE49016002680260416042684260D0
:102AC000816082688260416142694261816182699C
:102AD0008261C161C169C161FFF7CEF8FFF721F8DA
:102AE00018A91422159800F02FFE1C98EB49884273
:102AF00001D0F0A200E0F2A2022107910823159F65
:102B00003846FFF72BFA4B20069080001490C8300F
:102B1000FFF748FEFFF705F8ED4A1025384639461D
:102B20002B46FFF71BFADE480068FDF7A5FD009075
:102B3000019118AC1626E7A220463146FDF758FB56
:102B400001213846179122462B46FFF707FAD54850
:102B50000068FDF791FD00900191E1A22046314609
:102B6000FDF746FB3846079922462B46FFF7F6F954
:102B7000CD480068FDF780FD00900191DBA2204662
:102B80003146FDF735FB03213846089122462B4696
:102B9000FFF7E4F906E00798087035461795052019
:102BA000FFF700FED4490878401C0870C0B2142812
:102BB0007DD3002016900870D04F38680C900A24FE
:102BC0002046FFF7EFFD3D6838680E902046FFF77E
:102BD000E9FD3E68386810902046FFF7E3FD38684D
:102BE0000B90386811902046FFF7DCFD38680D9097
:102BF000386812902046FFF7D5FD38680F90386886
:102C000013902046FFF7CEFD0C9805430124600485
:102C1000284041420A90414109910E980643A1047F
:102C2000314048420C9148410E9010980B99014355
:102C3000E6040E407242724111980D99014320053D
:102C4000084041424141119112990F9D0D43630586
:102C50002B4059421093594112913968139B1943E3
:102C6000A7050F4079420D977941002821D1A4484A
:102C7000007800281DD11798002856D10F9613917F
:102C8000174600263046314600F0A2FB9D480660FC
:102C90009D480660FEF745FF1023304631468C4ABA
:102CA000FFF75CF996481199017025460CE0179ED4
:102CB0008DE10F9613911746914811990170179D58
:102CC000002D169E00D182E10A9A002A8F490CD16C
:102CD0000878002809D1099808708D4A1078401C9E
:102CE0000899084010703E4604E009980870002AD0
:102CF0003E4621D187490878401C0870C0B20B2895
:102D00001DD36748844901600020824908706649E4
:102D1000824A0A601499654A11607B4908607949C2
:102D20000860A0075F49086009E0FEF7FAFE7448F2
:102D300011990170169E4AE10020764908700C989E
:102D4000002835D176490878401C0870C0B2152893
:102D500029D3002472480470514800681E905148DD
:102D600000681F905048006820904C4822904F48BF
:102D700000682190204600F09FFC1EA914222046E6
:102D800000F004FD10272046214666A23B46FFF7CF
:102D9000E5F819204001FFF705FD204621464C4A81
:102DA0003B46FFF7DBF861480078002803D109E0D3
:102DB00000205B4908701098002853D15C480078C7
:102DC00000284FD152480078784400794000874469
:102DD0000F351D2BFECAEFBE08002020000020206A
:102DE000040020200C002020AC80424081000E0016
:102DF0002B4C20683F21090600F086FD20604D49DC
:102E000000F04CFD002828D1254824E0264C2068FD
:102E1000494900F079FD2060484900F03FFD002855
:102E20001BD12148454917E02048006844498842A1
:102E300000DB434819301D4908600EE0194C20683A
:102E40003F21090600F060FD20603A4900F026FDB0
:102E5000002802D113483749016000202949086041
:102E60002949086032481299017030480E99017062
:102E70000F98002803D133480078002808D00D9817
:102E8000002800D09DE030480078002800D098E06D
:102E90001F48007806A1085C40008744FECAEFBEC8
:102EA0000800202000002020040020200C0020200A
:102EB000577E677544656661756C74730000000029
:102EC000466C617368206C6F61646564000000008B
:102ED0000C4500003E4B503A20252E316600000084
:102EE000204B443A20252E3166000000204B493A01
:102EF00020252E32660000002002202080330A4068
:102F00001D0220201402202010022020190220205F
:102F100022022020180220200000C040CDCCCC3D51
:102F20001A02202053415645442100001B02202054
:102F30001E0220200000A041CDCC4C3D0000A0404E
:102F4000070300001C0220201F022020FB4C2068E9
:102F5000BF21090600F0D8FC20603F210C06214665
:102F600000F086FC002827D1F44824E0F54C2068C6
:102F7000FC4900F0C9FC20600024214600F078FCE8
:102F8000002819D1EF4816E0EF4800684B2800DC14
:102F900006981938EC4908600EE0E94C2068BF211A
:102FA000090600F0B1FC20600024214600F060FC1E
:102FB000002801D1E24804600020E5490860E549A5
:102FC0000860E74813990170E44806702E46149C87
:102FD000D434FFF759FCE4490A682240002E51D14D
:102FE000002A4FD0002738463946179200F0F0F9F2
:102FF000FEF797FD102438463946E7A22346FEF730
:10300000ADFF012116913846E6A22346FEF7A6FF42
:10301000CA480068FDF730FB13900D46C8480068A9
:10302000FDF72AFB06460C46C6480068FDF724FB60
:10303000139A00AB64C303940490059118AC162551
:1030400020462946D9A2FDF7D3F8022108263846A2
:1030500022463346FEF782FFBB48036820462946D6
:10306000D8A2FDF7C5F80321384622463346169EFE
:10307000FEF774FF179A1599491CBC4815914843EF
:10308000F04108E0002E6AD01599491CB748159107
:1030900048430121C841B6498842354600D37DE501
:1030A000CA490878002A02D0002800D173E5401CE4
:1030B0000870C0B2032800D26FE516960898087011
:1030C000A548057800241023204621469F4A1393E3
:1030D000FEF744FF99480068FDF7CEFA0090019191
:1030E0003E2320201290002D179300D0129B18AF82
:1030F000162638463146A44AFDF77AF801212046C3
:103100003A46139BFEF72AFF8D480068FDF7B4FA94
:1031100000900191012D179B00D0129B384631463B
:103120009A4AFDF765F8022120463A46139BFEF7BE
:1031300015FF022D01D012981790874800780228B9
:10314000169C804800D2C5E00068FDF795FA7E4ADB
:1031500012680392032D00D1CFE02022CEE0FFF7CA
:10316000BFFA04467A48056804607A480168204638
:1031700000F0CAFB07467F4E314600F084FB002872
:1031800000D13E4630467C4F394600F094FB002883
:1031900000D137466F4807606A480068394600F03A
:1031A0004DFC064665480068214600F047FC314664
:1031B00000F0AAFB06462046294600F097FC01468F
:1031C0005F48006800F03AFC314600F09DFB044681
:1031D0005D480068FDF774FB0546214600F086FC5B
:1031E000FDF724FB06462046294600F08DFBFDF73F
:1031F0001DFB01467D22D200964200DB16465F4B46
:103200009E4214DC1E46914213DA994200DC1946B4
:10321000304600F0DDF81599491C54481591484393
:103220000121C8415249884207D30025B6E49142A2
:10323000EBDB11469942EADDEAE7474807780020D0
:103240001026179001464EA23346FEF787FE3B48F4
:103250000068FDF711FA009001913E2320201390A1
:10326000002F169300D0139B18AC16252046294634
:10327000454AFCF7BDFF0121179822463346FEF769
:103280006DFE2F480068FDF7F7F900900191012FBE
:10329000169B00D0139B204629463C4AFCF7A8FF0A
:1032A0000221179D284622463346FEF757FE022F7D
:1032B00001D01398169028480078022813D321488B
:1032C0000068FDF7D9F9204A12680392032F25D030
:1032D000202224E00068FDF7CFF90090019118A8A2
:1032E00016212B4A0FE017480068FDF7C5F900903A
:1032F000019118A81621264A16E03E2200AB07C30A
:1033000018A81621234A179BFCF772FF00200321FF
:1033100018AA1023FEF722FE25463FE43E2200AB0A
:1033200007C318A816211B4A169BFCF761FF03214F
:1033300018AA10232846FEF711FE2FE408002020CB
:1033400000002020040020200C0020200C4500005C
:103350001402202010022020220220201C02202003
:103360001F022020CDCC4CBD80130A40CDCCCCCC4C
:103370009A99991900004844000048C418FCFFFFBE
:103380002052554E00000000384500002D45000039
:10339000434500001A450000434F4C4F5220484916
:1033A0005421000053544F50504544004B50252E9B
:1033B0003166204B44252E3166204B49252E32663E
:1033C000000000005350443A2564000021022020F0
:1033D000F0B583B002910746354C20461038002FD7
:1033E000014600D42146002F224600DC0A468021F7
:1033F0001160002F00DC204601252903016038B24E
:10340000C01339464140081A06B27D200190C00021
:10341000864200DB0646274802223146FEF73EFB85
:1034200029042548012F009103DB10380160204654
:1034300005E00160002F204601D020461038A90386
:1034400001601C4831462A46FEF728FB6F030299AB
:10345000012903DB20461038076003E027600029BC
:1034600000D0103C0098206008B2C0134140081AF8
:1034700006B20198C000864200DB064600220D48D5
:103480003146FEF70BFB02980B49012803DB084687
:103490001038076003E00F60002800D01039E803FF
:1034A0000860032203483146FEF7F8FA03B0F0BD86
:1034B000A0120A4000008640A0320A40F0B587B052
:1034C000D34E1025356001242046FFF76FF9384FA1
:1034D0003868069035612046FFF768F93560204668
:1034E000FFF764F93868059035612046FFF75EF90B
:1034F00035602046FFF75AF9386804903561204658
:10350000FFF754F935602046FFF750F9386803900B
:1035100035612046FFF74AF935602046FFF746F946
:103520003868029035612046FFF740F93560204643
:10353000FFF73CF93868019035612046FFF736F90E
:1035400035602046FFF732F9386800903561204633
:10355000FFF72CF935602046FFF728F93F68356101
:103560002046FFF723F905984001402101400698C5
:103570004008C00108180499090120220A401018C7
:103580000399C900294008180299890008220A40B5
:1035900010180199490004220A4010180221009ACB
:1035A00011400818B907C90F0143C8B207B0F0BDF0
:1035B00080330A40F0B583B0029040B2944E374653
:1035C00010370028384600DA30464021019101606A
:1035D0001024346001252846FFF7E8F834612846B6
:1035E000FFF7E4F802984006384600D530460199C6
:1035F000016034602846FFF7D9F834612846FFF7A8
:10360000D5F802988006384600D530460199016009
:1036100034602846FFF7CAF834612846FFF7C6F839
:103620000298C006384600D53046019901603460E2
:103630002846FFF7BBF834612846FFF7B7F8029831
:103640000007384600D530460199016034602846AD
:10365000FFF7ACF834612846FFF7A8F80298400756
:10366000384600D530460199016034602846FFF79E
:103670009DF834612846FFF799F80298800738468C
:1036800000D530460199016034602846FFF78EF876
:1036900034612846FFF78AF80298C00700D0374601
:1036A0000198386034602846FFF780F83461284676
:1036B000FFF77CF803B0F0BD70B50446544D082602
:1036C0002E610620FFF776FF2E602E612020FFF787
:1036D00071FF200CC0B2FFF76DFF200AC0B2FFF7E8
:1036E00069FFE0B2FFF766FF2E602E610520FFF74D
:1036F00061FFFFF7E3FE2E60C007F6D170BDC04644
:1037000080B50B480B4901600B4801600120FFF7B1
:1037100049F80A48812101604160C16008480949AF
:1037200001603B48082101601021016180BDC04655
:1037300000080A400100002600280A40108042408C
:10374000A880424081000400F0B581B014460D46C7
:1037500006462F48082707610320FFF72BFF300C90
:10376000C0B2FFF727FF300AC0B2FFF723FFF0B265
:10377000FFF720FF002C05D0FFF7A0FE28706D1C7E
:10378000641EF9D12248076001B0F0BDF0B585B0E4
:10379000002A3BD014460E461D4F049008253D617B
:1037A0000620FFF707FF3D603D610220FFF702FFA3
:1037B0000498000CC0B2FFF7FDFE0498000AC0B2E6
:1037C000FFF7F8FE0498C0B2FFF7F4FEFF2C039455
:1037D00001D901200402029601943078FFF7EAFE35
:1037E000761C641EF9D13D603D610520FFF7E2FEC5
:1037F000FFF764FE3D60C007F6D1039C0199641A8F
:1038000004984018029E7618002CC6D105B0F0BD71
:1038100090120A40F8B5040C8BB2264682B25E4381
:10382000104658430D0C370C3604002180191646FB
:1038300079416E43370C36048019264679416E4330
:103840008919F8BD4900CA020243100000D00420C3
:103850004A0D01D001221043044A490D914201D181
:1038600002210843012800D105207047FF0700000E
:1038700010B500F08FF8EFF30080800001D5012033
:1038800010BD002010BD10B500F084F8EFF30080EB
:103890004000800F012800D0002010BD10B500F0BE
:1038A000A3F8EFF300804000800F012801D0012031
:1038B00010BD002010BD10B500F096F8EFF30080A9
:1038C000800001D4012010BD002010BD30380A282E
:1038D00001D20120704700207047000010B5002978
:1038E0000AD00878002807D005487844FDF7B2FED2
:1038F000002801D0002010BD0248784410BD00000F
:10390000860C00007E0C000070B50125ED07040058
:103910004C4020D4441A01D2001B0919C60D4B009B
:10392000F2B2FF2A29D01B0E2CD000020C02284331
:103930002C43D31ADC40051910D2280A02D3401CAC
:103940006D0611D0761EF6058019FF2A00DA70BDCB
:10395000C00DC00570BD694000F0CEF801200543E0
:10396000C541521C761CE8E764089C40C9016140CF
:103970008900E7D10124A043E4E71B0E440200D0F4
:10398000034870BD002AFCD1C00FC00770BD00BF46
:103990000000C07F0123DB0502000A430DD4DA4298
:1039A00003D49A4207D488427047D84214D4D942EB
:1039B00012D48842704780427047DA4203D59A4257
:1039C000F9D5814270475B004200DA4204D24A00D6
:1039D000DA4201D28142704710B5024AFDF7DCFDA0
:1039E00010BD00BF090013040123DB0502000A43D8
:1039F0000DD4DA4203D49A4207D488427047D842A1
:103A000014D4D94212D48842704780427047DA42B7
:103A100003D59A42F9D5814270475B004200DA42F1
:103A200004D24A00DA4201D28142704710B5024AFC
:103A3000FDF7B2FD10BD00BF0900160470B54200CD
:103A400064414B005C41120E39D01B0E38D0FF2A66
:103A50003CD0FF2B3AD0D2187F3A40024902400AAC
:103A6000490A4518ED0106004E43000A090A484379
:103A70000104731A4019190C4318990F04D05B08FC
:103A8000012149075B1A521CD80904D3401CF503D5
:103A900001D19D0607D0FF2A08D2D50506D0E4073C
:103AA0002043401970BD0125A843F4E7002A01DC3A
:103AB000E00770BD2402FF202043C00570BD1B0E2F
:103AC000FF2A03D0FF2B01D0E00770BDFF2636068A
:103AD0004500B54206D84D00B54203D8D218FF2A9A
:103AE00000D0E7E7004870BD0000C07F70B5012539
:103AF000ED0704004C4022D4441A02D26C40001B53
:103B00000919C60D4B00F2B2FF2A4BD01B0E50D044
:103B100000020C02A8432C43D31ADC40051B05D538
:103B2000AD0019D36D08761E521E37D0F605280A4F
:103B300001D2801970BD70416D0603D070BD69401F
:103B4000FFF7E8FE9C4009026140490001D0401E99
:103B500070BD0124A04370BD6D081DD001202B0C49
:103B600001D12D0410302B0E01D12D0208302B0F66
:103B700001D12D01001DAB0F01D1AD00801CEB0F59
:103B800001D16D00401C361A121A6D00680AF50545
:103B90004019012A02DB70BD002070BDC036300A1A
:103BA000C00770BD1B0E440201D1FF2B00D102489B
:103BB00070BD002AF0D070BD0000C07F03B4024881
:103BC0007844844603BC604761CFFFFF04000008CF
:103BD000000000000000000200010000108182834C
:103BE0008485868788898B8C8D8E8F91929395960C
:103BF00097999A9C9D9FA0A2A3A5A7A8AAACAEB096
:103C0000B2B3B5B7B9BCBEC0C2C5C7C9CCCED1D49A
:103C1000D7D9DCDFE2E6E9ECF0F3F7FAFE000000CA
:103C200002400000000000A000000000054000006D
:103C3000000000C8000000000C4000000000409C94
:103C400000000000194000000020BCBE0000000081
:103C500034400000BFC91B8E00000004B5400000C6
:103C6000504BCFD06607E2CF010000006C4100004E
:103C70003E8251AADFEEA73401000000D9420000C5
:103C8000DCB5A0E23A301F97FFFFFFFFB44500000C
:103C9000FD25A0C8E9A3C14FFFFFFFFFFF3F0000C4
:103CA0000000008000000000FF3F000000000080D6
:103CB000000000000000000000000000002F0000D5
:103CC00000000700070000147F147F1400242A7FDF
:103CD0002A1200626408132300364955225000005E
:103CE0000503000000001C224100000041221C00CE
:103CF0000014083E08140008083E0808000000A050
:103D0000600000080808080800006060000000204B
:103D100010080402003E5149453E0000427F400029
:103D2000004261514946002141454B3100181412AF
:103D30007F10002745454539003C4A49493000017C
:103D40007109050300364949493600064949291ECB
:103D5000000036360000000056360000000814222D
:103D6000410000141414141400004122140800022D
:103D70000151090600324959513E007C1211127C52
:103D8000007F49494936003E41414122007F41417F
:103D9000221C007F49494941007F09090901003E71
:103DA0004149497A007F0808087F0000417F4100AF
:103DB000002040413F01007F08142241007F404025
:103DC0004040007F020C027F007F0408107F003E0D
:103DD0004141413E007F09090906003E4151215EF3
:103DE000007F091929460046494949310001017FF0
:103DF0000101003F4040403F001F2040201F003F86
:103E00004038403F00631408146300070870080737
:103E100000615149454300007F41410000552A554A
:103E20002A55000041417F000004020102040040C5
:103E300040404040000001020400002054545478E7
:103E4000007F484444380038444444200038444407
:103E5000487F00385454541800087E0901020018A5
:103E6000A4A4A47C007F080404780000447D4000E2
:103E7000004080847D00007F102844000000417FC6
:103E80004000007C04180478007C080404780038A2
:103E90004444443800FC242424180018242418FC2A
:103EA000007C0804040800485454542000043F4493
:103EB0004020003C4040207C001C2040201C003C56
:103EC0004030403C004428102844001CA0A0A07CA6
:103ED000004464544C4414141414141400000000DE
:103EE000000000000000000000000000000000F8DA
:103EF00000000000000000333000000000100C063D
:103F0000100C0600000000000000000040C07840D7
:103F1000C0784000043F04043F040400007088FCA3
:103F200008300000001820FF211E0000F008F000FB
:103F3000E018000000211C031E211E0000F008886C
:103F4000700000001E2123241927211010160E00D6
:103F5000000000000000000000000000000000E081
:103F60001804020000000007182040000002041896
:103F7000E00000000040201807000000404080F0F2
:103F8000804040000202010F01020200000000F028
:103F9000000000000101011F0101010000000000FC
:103FA0000000000080B07000000000000000000071
:103FB00000000000000101010101010100000000FA
:103FC0000000000000303000000000000000000091
:103FD00080601804006018060100000000E010086E
:103FE0000810E000000F102020100F00001010F843
:103FF000000000000020203F202000000070080882
:104000000888700000302824222130000030088801
:10401000884830000018202020110E000000C02029
:1040200010F8000000070424243F240000F808884A
:10403000880808000019212020110E0000E01088D7
:1040400088180000000F112020110E000038080809
:10405000C83808000000003F000000000070880819
:1040600008887000001C222121221C0000E010089A
:104070000810E0000000312222110F00000000C0F3
:10408000C000000000000030300000000000008090
:104090000000000000008060000000000000804080
:1040A0002010080000010204081020004040404099
:1040B00040404000040404040404040000081020EC
:1040C0004080000000201008040201000070480831
:1040D0000808F0000000003036010000C030C82899
:1040E000E810E0000718272423140B000000C03854
:1040F000E0000000203C23020227382008F88888CE
:1041000088700000203F202020110E00C0300808D9
:1041100008083800071820202010080008F80808B0
:104120000810E000203F202020100F0008F88888A9
:10413000E8081000203F20202320180008F8888875
:10414000E8081000203F200003000000C0300808ED
:104150000838000007182020221E020008F8080076
:104160000008F808203F210101213F20000808F83D
:10417000080800000020203F202000000000080860
:10418000F8080800C08080807F00000008F888C020
:1041900028180800203F20012638200008F80800D1
:1041A00000000000203F20202020300008F8F80008
:1041B000F8F80800203F003F003F200008F830C01A
:1041C0000008F808203F200007183F00E01008080A
:1041D0000810E0000F10202020100F0008F8080839
:1041E0000808F000203F210101010000E01008084C
:1041F0000810E0000F18242438504F0008F8888871
:1042000088887000203F2000030C30200070880850
:10421000080838000038202121221C00180808F85E
:10422000080818000000203F2000000008F80800DF
:104230000008F808001F202020201F0008788800B0
:1042400000C83808000007380E010000F80800F820
:104250000008F800033C0700073C030008186880CA
:104260008068180820302C03032C30200838C80040
:10427000C83808000000203F20000000100808088F
:10428000C83808002038262120201800000000FE31
:10429000020202000000007F40404000000C30C0DD
:1042A00000000000000000010638C0000002020209
:1042B000FE000000004040407F00000000000402BB
:1042C00002020400000000000000000000000000E6
:1042D00000000000808080808080808000020204D6
:1042E00000000000000000000000000000008080CE
:1042F000808000000019242222223F2008F800803C
:1043000080000000003F112020110E0000000080FE
:1043100080800000000E112020201100000000808D
:104320008088F800000E112020103F2000008080BF
:1043300080800000001F222222221300008080F0D3
:10434000888888180020203F2020000000008080FE
:1043500080808000006B94949493600008F8008043
:1043600080800000203F210000203F20008098989E
:10437000000000000020203F2020000000000080FE
:104380009898000000C08080807F000008F800003E
:1043900080808000203F24022D302000000808F893
:1043A000000000000020203F20200000808080804E
:1043B00080808000203F20003F20003F80800080E0
:1043C00080800000203F210000203F2000008080EE
:1043D00080800000001F202020201F00808000809F
:1043E0008000000080FFA12020110E00000000804E
:1043F00080808000000E112020A0FF80808080003F
:104400008080800020203F2120000100000080806B
:10441000808080000033242424241900008080E060
:10442000808000000000001F20200000808000002D
:1044300000808000001F202020103F20808080000E
:104440000080808000010E3008060100808000801E
:10445000008080800F300C030C300F000080800043
:10446000808080000020312E0E312000808080006E
:104470000080808080818E7018060100008080801E
:10448000808080000021302C2221300000000000BC
:10449000807C020200000000003F4040000000005D
:1044A000FF00000000000000FF0000000002027C8E
:1044B000800000000040403F0000000000060101B5
:1044C00002020404000000000000000008000807C9
:1044D00000000000E803000020010100080763005D
:1044E000020000009F0F000001000000000000001B
:1044F0000000000004000000180000000030000070
:1045000008000000180000000030000053544F5015
:10451000204B4559342D3E474F0025634B493A25E2
:104520002E32662025635350443A25640025634BA0
:10453000443A20252E31660025634B503A20252E23
:1045400031660025634B493A20252E326600000073
:104550009045000000002020100000002001000015
:10456000A045000010002020700400004801000059
:104570001C00000043000000F8FFFFFF0C000000DB
:104580000E0000000F0000002E00000000000000E0
:1045900000000040CDCCCC3D0000C0402C0100000C
:04000005000000C136
:00000001FF
